{
  "contractName": "LandSale",
  "abi": [
    {
      "anonymous": false,
      "inputs": [
        {
          "indexed": true,
          "internalType": "address",
          "name": "owner",
          "type": "address"
        },
        {
          "indexed": true,
          "internalType": "address",
          "name": "approved",
          "type": "address"
        },
        {
          "indexed": true,
          "internalType": "uint256",
          "name": "tokenId",
          "type": "uint256"
        }
      ],
      "name": "Approval",
      "type": "event"
    },
    {
      "anonymous": false,
      "inputs": [
        {
          "indexed": true,
          "internalType": "address",
          "name": "owner",
          "type": "address"
        },
        {
          "indexed": true,
          "internalType": "address",
          "name": "operator",
          "type": "address"
        },
        {
          "indexed": false,
          "internalType": "bool",
          "name": "approved",
          "type": "bool"
        }
      ],
      "name": "ApprovalForAll",
      "type": "event"
    },
    {
      "anonymous": false,
      "inputs": [
        {
          "indexed": true,
          "internalType": "uint256",
          "name": "landID",
          "type": "uint256"
        },
        {
          "indexed": false,
          "internalType": "address",
          "name": "highestBidder",
          "type": "address"
        },
        {
          "indexed": false,
          "internalType": "uint256",
          "name": "highestBid",
          "type": "uint256"
        }
      ],
      "name": "BidEvent",
      "type": "event"
    },
    {
      "anonymous": false,
      "inputs": [
        {
          "indexed": true,
          "internalType": "address",
          "name": "from",
          "type": "address"
        },
        {
          "indexed": true,
          "internalType": "address",
          "name": "to",
          "type": "address"
        },
        {
          "indexed": true,
          "internalType": "uint256",
          "name": "tokenId",
          "type": "uint256"
        }
      ],
      "name": "Transfer",
      "type": "event"
    },
    {
      "stateMutability": "nonpayable",
      "type": "fallback"
    },
    {
      "inputs": [
        {
          "internalType": "address",
          "name": "to",
          "type": "address"
        },
        {
          "internalType": "uint256",
          "name": "tokenId",
          "type": "uint256"
        }
      ],
      "name": "approve",
      "outputs": [],
      "stateMutability": "nonpayable",
      "type": "function"
    },
    {
      "inputs": [
        {
          "internalType": "address",
          "name": "owner",
          "type": "address"
        }
      ],
      "name": "balanceOf",
      "outputs": [
        {
          "internalType": "uint256",
          "name": "",
          "type": "uint256"
        }
      ],
      "stateMutability": "view",
      "type": "function"
    },
    {
      "inputs": [
        {
          "internalType": "uint256",
          "name": "tokenId",
          "type": "uint256"
        }
      ],
      "name": "getApproved",
      "outputs": [
        {
          "internalType": "address",
          "name": "",
          "type": "address"
        }
      ],
      "stateMutability": "view",
      "type": "function"
    },
    {
      "inputs": [
        {
          "internalType": "uint256",
          "name": "landID",
          "type": "uint256"
        }
      ],
      "name": "getLandDetails",
      "outputs": [
        {
          "components": [
            {
              "internalType": "string",
              "name": "province",
              "type": "string"
            },
            {
              "internalType": "string",
              "name": "district",
              "type": "string"
            },
            {
              "internalType": "string",
              "name": "village",
              "type": "string"
            },
            {
              "internalType": "uint256",
              "name": "blockNo",
              "type": "uint256"
            },
            {
              "internalType": "uint256",
              "name": "surveyNo",
              "type": "uint256"
            },
            {
              "internalType": "uint256",
              "name": "landValue",
              "type": "uint256"
            },
            {
              "internalType": "uint256",
              "name": "area",
              "type": "uint256"
            },
            {
              "internalType": "bool",
              "name": "salesStatus",
              "type": "bool"
            },
            {
              "internalType": "bytes",
              "name": "documentHash",
              "type": "bytes"
            }
          ],
          "internalType": "struct LandRegistration.LandDetail",
          "name": "",
          "type": "tuple"
        }
      ],
      "stateMutability": "view",
      "type": "function"
    },
    {
      "inputs": [
        {
          "internalType": "address",
          "name": "owner",
          "type": "address"
        },
        {
          "internalType": "address",
          "name": "operator",
          "type": "address"
        }
      ],
      "name": "isApprovedForAll",
      "outputs": [
        {
          "internalType": "bool",
          "name": "",
          "type": "bool"
        }
      ],
      "stateMutability": "view",
      "type": "function"
    },
    {
      "inputs": [],
      "name": "name",
      "outputs": [
        {
          "internalType": "string",
          "name": "",
          "type": "string"
        }
      ],
      "stateMutability": "view",
      "type": "function"
    },
    {
      "inputs": [
        {
          "internalType": "uint256",
          "name": "tokenId",
          "type": "uint256"
        }
      ],
      "name": "ownerOf",
      "outputs": [
        {
          "internalType": "address",
          "name": "",
          "type": "address"
        }
      ],
      "stateMutability": "view",
      "type": "function"
    },
    {
      "inputs": [
        {
          "internalType": "uint256",
          "name": "surveyNo",
          "type": "uint256"
        },
        {
          "internalType": "uint256",
          "name": "blockNo",
          "type": "uint256"
        },
        {
          "internalType": "string",
          "name": "province",
          "type": "string"
        },
        {
          "internalType": "string",
          "name": "district",
          "type": "string"
        },
        {
          "internalType": "string",
          "name": "village",
          "type": "string"
        },
        {
          "internalType": "uint256",
          "name": "landValue",
          "type": "uint256"
        },
        {
          "internalType": "uint256",
          "name": "area",
          "type": "uint256"
        },
        {
          "internalType": "bytes",
          "name": "documentHash",
          "type": "bytes"
        }
      ],
      "name": "registerNewLand",
      "outputs": [],
      "stateMutability": "nonpayable",
      "type": "function"
    },
    {
      "inputs": [],
      "name": "registeredLandCount",
      "outputs": [
        {
          "internalType": "uint256",
          "name": "",
          "type": "uint256"
        }
      ],
      "stateMutability": "view",
      "type": "function"
    },
    {
      "inputs": [
        {
          "internalType": "address",
          "name": "from",
          "type": "address"
        },
        {
          "internalType": "address",
          "name": "to",
          "type": "address"
        },
        {
          "internalType": "uint256",
          "name": "tokenId",
          "type": "uint256"
        }
      ],
      "name": "safeTransferFrom",
      "outputs": [],
      "stateMutability": "nonpayable",
      "type": "function"
    },
    {
      "inputs": [
        {
          "internalType": "address",
          "name": "from",
          "type": "address"
        },
        {
          "internalType": "address",
          "name": "to",
          "type": "address"
        },
        {
          "internalType": "uint256",
          "name": "tokenId",
          "type": "uint256"
        },
        {
          "internalType": "bytes",
          "name": "data",
          "type": "bytes"
        }
      ],
      "name": "safeTransferFrom",
      "outputs": [],
      "stateMutability": "nonpayable",
      "type": "function"
    },
    {
      "inputs": [
        {
          "internalType": "address",
          "name": "operator",
          "type": "address"
        },
        {
          "internalType": "bool",
          "name": "approved",
          "type": "bool"
        }
      ],
      "name": "setApprovalForAll",
      "outputs": [],
      "stateMutability": "nonpayable",
      "type": "function"
    },
    {
      "inputs": [
        {
          "internalType": "bytes4",
          "name": "interfaceId",
          "type": "bytes4"
        }
      ],
      "name": "supportsInterface",
      "outputs": [
        {
          "internalType": "bool",
          "name": "",
          "type": "bool"
        }
      ],
      "stateMutability": "view",
      "type": "function"
    },
    {
      "inputs": [],
      "name": "symbol",
      "outputs": [
        {
          "internalType": "string",
          "name": "",
          "type": "string"
        }
      ],
      "stateMutability": "view",
      "type": "function"
    },
    {
      "inputs": [
        {
          "internalType": "uint256",
          "name": "tokenId",
          "type": "uint256"
        }
      ],
      "name": "tokenURI",
      "outputs": [
        {
          "internalType": "string",
          "name": "",
          "type": "string"
        }
      ],
      "stateMutability": "view",
      "type": "function"
    },
    {
      "inputs": [
        {
          "internalType": "address",
          "name": "from",
          "type": "address"
        },
        {
          "internalType": "address",
          "name": "to",
          "type": "address"
        },
        {
          "internalType": "uint256",
          "name": "tokenId",
          "type": "uint256"
        }
      ],
      "name": "transferFrom",
      "outputs": [],
      "stateMutability": "nonpayable",
      "type": "function"
    },
    {
      "inputs": [
        {
          "internalType": "uint256",
          "name": "landID",
          "type": "uint256"
        }
      ],
      "name": "bid",
      "outputs": [],
      "stateMutability": "payable",
      "type": "function"
    },
    {
      "inputs": [
        {
          "internalType": "uint256",
          "name": "landID",
          "type": "uint256"
        }
      ],
      "name": "acceptBid",
      "outputs": [],
      "stateMutability": "nonpayable",
      "type": "function"
    }
  ],
  "bytecode": "0x608060405260006007553480156200001657600080fd5b506040518060400160405280600481526020017f4c616e64000000000000000000000000000000000000000000000000000000008152506040518060400160405280600381526020017f4c4e440000000000000000000000000000000000000000000000000000000000815250816000908162000094919062000329565b508060019081620000a6919062000329565b50505062000410565b600081519050919050565b7f4e487b7100000000000000000000000000000000000000000000000000000000600052604160045260246000fd5b7f4e487b7100000000000000000000000000000000000000000000000000000000600052602260045260246000fd5b600060028204905060018216806200013157607f821691505b602082108103620001475762000146620000e9565b5b50919050565b60008190508160005260206000209050919050565b60006020601f8301049050919050565b600082821b905092915050565b600060088302620001b17fffffffffffffffffffffffffffffffffffffffffffffffffffffffffffffffff8262000172565b620001bd868362000172565b95508019841693508086168417925050509392505050565b6000819050919050565b6000819050919050565b60006200020a62000204620001fe84620001d5565b620001df565b620001d5565b9050919050565b6000819050919050565b6200022683620001e9565b6200023e620002358262000211565b8484546200017f565b825550505050565b600090565b6200025562000246565b620002628184846200021b565b505050565b5b818110156200028a576200027e6000826200024b565b60018101905062000268565b5050565b601f821115620002d957620002a3816200014d565b620002ae8462000162565b81016020851015620002be578190505b620002d6620002cd8562000162565b83018262000267565b50505b505050565b600082821c905092915050565b6000620002fe60001984600802620002de565b1980831691505092915050565b6000620003198383620002eb565b9150826002028217905092915050565b6200033482620000af565b67ffffffffffffffff81111562000350576200034f620000ba565b5b6200035c825462000118565b620003698282856200028e565b600060209050601f831160018114620003a157600084156200038c578287015190505b6200039885826200030b565b86555062000408565b601f198416620003b1866200014d565b60005b82811015620003db57848901518255600182019150602085019450602081019050620003b4565b86831015620003fb5784890151620003f7601f891682620002eb565b8355505b6001600288020188555050505b505050505050565b6138d880620004206000396000f3fe60806040526004361061010d5760003560e01c80636352211e11610095578063a7613a7d11610064578063a7613a7d1461037b578063b88d4fde146103a6578063c87b56dd146103cf578063e985e9c51461040c578063fe0cb7dc146104495761010e565b80636352211e146102ad57806370a08231146102ea57806395d89b4114610327578063a22cb465146103525761010e565b806323b872dd116100dc57806323b872dd146101ed5780632b1fd58a14610216578063395044eb1461023f57806342842e0e14610268578063454a2ab3146102915761010e565b806301ffc9a71461011f57806306fdde031461015c578063081812fc14610187578063095ea7b3146101c45761010e565b5b34801561011a57600080fd5b600080fd5b34801561012b57600080fd5b5061014660048036038101906101419190612345565b610486565b604051610153919061238d565b60405180910390f35b34801561016857600080fd5b50610171610568565b60405161017e9190612438565b60405180910390f35b34801561019357600080fd5b506101ae60048036038101906101a99190612490565b6105fa565b6040516101bb91906124fe565b60405180910390f35b3480156101d057600080fd5b506101eb60048036038101906101e69190612545565b610640565b005b3480156101f957600080fd5b50610214600480360381019061020f9190612585565b610757565b005b34801561022257600080fd5b5061023d60048036038101906102389190612490565b6107b7565b005b34801561024b57600080fd5b50610266600480360381019061026191906127ae565b610aba565b005b34801561027457600080fd5b5061028f600480360381019061028a9190612585565b610be6565b005b6102ab60048036038101906102a69190612490565b610c06565b005b3480156102b957600080fd5b506102d460048036038101906102cf9190612490565b610f34565b6040516102e191906124fe565b60405180910390f35b3480156102f657600080fd5b50610311600480360381019061030c91906128d4565b610fba565b60405161031e9190612910565b60405180910390f35b34801561033357600080fd5b5061033c611071565b6040516103499190612438565b60405180910390f35b34801561035e57600080fd5b5061037960048036038101906103749190612957565b611103565b005b34801561038757600080fd5b50610390611119565b60405161039d9190612910565b60405180910390f35b3480156103b257600080fd5b506103cd60048036038101906103c89190612997565b61111f565b005b3480156103db57600080fd5b506103f660048036038101906103f19190612490565b611181565b6040516104039190612438565b60405180910390f35b34801561041857600080fd5b50610433600480360381019061042e9190612a1a565b6111e9565b604051610440919061238d565b60405180910390f35b34801561045557600080fd5b50610470600480360381019061046b9190612490565b61127d565b60405161047d9190612bf1565b60405180910390f35b60007f80ac58cd000000000000000000000000000000000000000000000000000000007bffffffffffffffffffffffffffffffffffffffffffffffffffffffff1916827bffffffffffffffffffffffffffffffffffffffffffffffffffffffff1916148061055157507f5b5e139f000000000000000000000000000000000000000000000000000000007bffffffffffffffffffffffffffffffffffffffffffffffffffffffff1916827bffffffffffffffffffffffffffffffffffffffffffffffffffffffff1916145b80610561575061056082611536565b5b9050919050565b60606000805461057790612c42565b80601f01602080910402602001604051908101604052809291908181526020018280546105a390612c42565b80156105f05780601f106105c5576101008083540402835291602001916105f0565b820191906000526020600020905b8154815290600101906020018083116105d357829003601f168201915b5050505050905090565b6000610605826115a0565b6004600083815260200190815260200160002060009054906101000a900473ffffffffffffffffffffffffffffffffffffffff169050919050565b600061064b82610f34565b90508073ffffffffffffffffffffffffffffffffffffffff168373ffffffffffffffffffffffffffffffffffffffff16036106bb576040517f08c379a00000000000000000000000000000000000000000000000000000000081526004016106b290612ce5565b60405180910390fd5b8073ffffffffffffffffffffffffffffffffffffffff166106da6115eb565b73ffffffffffffffffffffffffffffffffffffffff1614806107095750610708816107036115eb565b6111e9565b5b610748576040517f08c379a000000000000000000000000000000000000000000000000000000000815260040161073f90612d77565b60405180910390fd5b61075283836115f3565b505050565b6107686107626115eb565b826116ac565b6107a7576040517f08c379a000000000000000000000000000000000000000000000000000000000815260040161079e90612e09565b60405180910390fd5b6107b2838383611741565b505050565b3373ffffffffffffffffffffffffffffffffffffffff166108fc60096000848152602001908152602001600020600001549081150290604051600060405180830381858888f19350505050158015610813573d6000803e3d6000fd5b50610855336009600084815260200190815260200160002060010160009054906101000a900473ffffffffffffffffffffffffffffffffffffffff1683610be6565b60005b6009600083815260200190815260200160002060030180549050811015610a87576009600083815260200190815260200160002060010160009054906101000a900473ffffffffffffffffffffffffffffffffffffffff1673ffffffffffffffffffffffffffffffffffffffff166009600084815260200190815260200160002060030182815481106108ee576108ed612e29565b5b9060005260206000200160009054906101000a900473ffffffffffffffffffffffffffffffffffffffff1673ffffffffffffffffffffffffffffffffffffffff160315610a745760096000838152602001908152602001600020600301818154811061095d5761095c612e29565b5b9060005260206000200160009054906101000a900473ffffffffffffffffffffffffffffffffffffffff1673ffffffffffffffffffffffffffffffffffffffff166108fc6009600085815260200190815260200160002060020160006009600087815260200190815260200160002060030185815481106109e1576109e0612e29565b5b9060005260206000200160009054906101000a900473ffffffffffffffffffffffffffffffffffffffff1673ffffffffffffffffffffffffffffffffffffffff1673ffffffffffffffffffffffffffffffffffffffff168152602001908152602001600020549081150290604051600060405180830381858888f19350505050158015610a72573d6000803e3d6000fd5b505b8080610a7f90612e87565b915050610858565b5060016006600083815260200190815260200160002060070160006101000a81548160ff02191690831515021790555050565b604051806101200160405280878152602001868152602001858152602001898152602001888152602001848152602001838152602001600015158152602001828152506006600060075481526020019081526020016000206000820151816000019081610b27919061307b565b506020820151816001019081610b3d919061307b565b506040820151816002019081610b53919061307b565b50606082015181600301556080820151816004015560a0820151816005015560c0820151816006015560e08201518160070160006101000a81548160ff021916908315150217905550610100820151816008019081610bb291906131a8565b50905050610bc233600754611a3a565b600160076000828254610bd5919061327a565b925050819055505050505050505050565b610c018383836040518060200160405280600081525061111f565b505050565b610c0f81610f34565b73ffffffffffffffffffffffffffffffffffffffff163373ffffffffffffffffffffffffffffffffffffffff1603610c4657600080fd5b6009600082815260200190815260200160002060000154346009600084815260200190815260200160002060020160003373ffffffffffffffffffffffffffffffffffffffff1673ffffffffffffffffffffffffffffffffffffffff16815260200190815260200160002054610cbc919061327a565b11610cfc576040517f08c379a0000000000000000000000000000000000000000000000000000000008152600401610cf3906132fa565b60405180910390fd5b336009600083815260200190815260200160002060010160006101000a81548173ffffffffffffffffffffffffffffffffffffffff021916908373ffffffffffffffffffffffffffffffffffffffff16021790555060096000828152602001908152602001600020600301339080600181540180825580915050600190039060005260206000200160009091909190916101000a81548173ffffffffffffffffffffffffffffffffffffffff021916908373ffffffffffffffffffffffffffffffffffffffff160217905550346009600083815260200190815260200160002060020160003373ffffffffffffffffffffffffffffffffffffffff1673ffffffffffffffffffffffffffffffffffffffff16815260200190815260200160002054610e27919061327a565b6009600083815260200190815260200160002060000181905550346009600083815260200190815260200160002060020160003373ffffffffffffffffffffffffffffffffffffffff1673ffffffffffffffffffffffffffffffffffffffff1681526020019081526020016000206000828254610ea4919061327a565b92505081905550807faba11c5dfdb797eb6f7328f5f70a9b390c19e34a3927e10f1925839d442c42936009600084815260200190815260200160002060010160009054906101000a900473ffffffffffffffffffffffffffffffffffffffff166009600085815260200190815260200160002060000154604051610f2992919061331a565b60405180910390a250565b600080610f4083611c57565b9050600073ffffffffffffffffffffffffffffffffffffffff168173ffffffffffffffffffffffffffffffffffffffff1603610fb1576040517f08c379a0000000000000000000000000000000000000000000000000000000008152600401610fa89061338f565b60405180910390fd5b80915050919050565b60008073ffffffffffffffffffffffffffffffffffffffff168273ffffffffffffffffffffffffffffffffffffffff160361102a576040517f08c379a000000000000000000000000000000000000000000000000000000000815260040161102190613421565b60405180910390fd5b600360008373ffffffffffffffffffffffffffffffffffffffff1673ffffffffffffffffffffffffffffffffffffffff168152602001908152602001600020549050919050565b60606001805461108090612c42565b80601f01602080910402602001604051908101604052809291908181526020018280546110ac90612c42565b80156110f95780601f106110ce576101008083540402835291602001916110f9565b820191906000526020600020905b8154815290600101906020018083116110dc57829003601f168201915b5050505050905090565b61111561110e6115eb565b8383611c94565b5050565b60075481565b61113061112a6115eb565b836116ac565b61116f576040517f08c379a000000000000000000000000000000000000000000000000000000000815260040161116690612e09565b60405180910390fd5b61117b84848484611e00565b50505050565b606061118c826115a0565b6000611196611e5c565b905060008151116111b657604051806020016040528060008152506111e1565b806111c084611e73565b6040516020016111d192919061347d565b6040516020818303038152906040525b915050919050565b6000600560008473ffffffffffffffffffffffffffffffffffffffff1673ffffffffffffffffffffffffffffffffffffffff16815260200190815260200160002060008373ffffffffffffffffffffffffffffffffffffffff1673ffffffffffffffffffffffffffffffffffffffff16815260200190815260200160002060009054906101000a900460ff16905092915050565b61128561228b565b60066000838152602001908152602001600020604051806101200160405290816000820180546112b490612c42565b80601f01602080910402602001604051908101604052809291908181526020018280546112e090612c42565b801561132d5780601f106113025761010080835404028352916020019161132d565b820191906000526020600020905b81548152906001019060200180831161131057829003601f168201915b5050505050815260200160018201805461134690612c42565b80601f016020809104026020016040519081016040528092919081815260200182805461137290612c42565b80156113bf5780601f10611394576101008083540402835291602001916113bf565b820191906000526020600020905b8154815290600101906020018083116113a257829003601f168201915b505050505081526020016002820180546113d890612c42565b80601f016020809104026020016040519081016040528092919081815260200182805461140490612c42565b80156114515780601f1061142657610100808354040283529160200191611451565b820191906000526020600020905b81548152906001019060200180831161143457829003601f168201915b50505050508152602001600382015481526020016004820154815260200160058201548152602001600682015481526020016007820160009054906101000a900460ff161515151581526020016008820180546114ad90612c42565b80601f01602080910402602001604051908101604052809291908181526020018280546114d990612c42565b80156115265780601f106114fb57610100808354040283529160200191611526565b820191906000526020600020905b81548152906001019060200180831161150957829003601f168201915b5050505050815250509050919050565b60007f01ffc9a7000000000000000000000000000000000000000000000000000000007bffffffffffffffffffffffffffffffffffffffffffffffffffffffff1916827bffffffffffffffffffffffffffffffffffffffffffffffffffffffff1916149050919050565b6115a981611f41565b6115e8576040517f08c379a00000000000000000000000000000000000000000000000000000000081526004016115df9061338f565b60405180910390fd5b50565b600033905090565b816004600083815260200190815260200160002060006101000a81548173ffffffffffffffffffffffffffffffffffffffff021916908373ffffffffffffffffffffffffffffffffffffffff160217905550808273ffffffffffffffffffffffffffffffffffffffff1661166683610f34565b73ffffffffffffffffffffffffffffffffffffffff167f8c5be1e5ebec7d5bd14f71427d1e84f3dd0314c0f7b2291e5b200ac8c7c3b92560405160405180910390a45050565b6000806116b883610f34565b90508073ffffffffffffffffffffffffffffffffffffffff168473ffffffffffffffffffffffffffffffffffffffff1614806116fa57506116f981856111e9565b5b8061173857508373ffffffffffffffffffffffffffffffffffffffff16611720846105fa565b73ffffffffffffffffffffffffffffffffffffffff16145b91505092915050565b8273ffffffffffffffffffffffffffffffffffffffff1661176182610f34565b73ffffffffffffffffffffffffffffffffffffffff16146117b7576040517f08c379a00000000000000000000000000000000000000000000000000000000081526004016117ae90613513565b60405180910390fd5b600073ffffffffffffffffffffffffffffffffffffffff168273ffffffffffffffffffffffffffffffffffffffff1603611826576040517f08c379a000000000000000000000000000000000000000000000000000000000815260040161181d906135a5565b60405180910390fd5b6118338383836001611f82565b8273ffffffffffffffffffffffffffffffffffffffff1661185382610f34565b73ffffffffffffffffffffffffffffffffffffffff16146118a9576040517f08c379a00000000000000000000000000000000000000000000000000000000081526004016118a090613513565b60405180910390fd5b6004600082815260200190815260200160002060006101000a81549073ffffffffffffffffffffffffffffffffffffffff02191690556001600360008573ffffffffffffffffffffffffffffffffffffffff1673ffffffffffffffffffffffffffffffffffffffff168152602001908152602001600020600082825403925050819055506001600360008473ffffffffffffffffffffffffffffffffffffffff1673ffffffffffffffffffffffffffffffffffffffff16815260200190815260200160002060008282540192505081905550816002600083815260200190815260200160002060006101000a81548173ffffffffffffffffffffffffffffffffffffffff021916908373ffffffffffffffffffffffffffffffffffffffff160217905550808273ffffffffffffffffffffffffffffffffffffffff168473ffffffffffffffffffffffffffffffffffffffff167fddf252ad1be2c89b69c2b068fc378daa952ba7f163c4a11628f55a4df523b3ef60405160405180910390a4611a358383836001611f88565b505050565b600073ffffffffffffffffffffffffffffffffffffffff168273ffffffffffffffffffffffffffffffffffffffff1603611aa9576040517f08c379a0000000000000000000000000000000000000000000000000000000008152600401611aa090613611565b60405180910390fd5b611ab281611f41565b15611af2576040517f08c379a0000000000000000000000000000000000000000000000000000000008152600401611ae99061367d565b60405180910390fd5b611b00600083836001611f82565b611b0981611f41565b15611b49576040517f08c379a0000000000000000000000000000000000000000000000000000000008152600401611b409061367d565b60405180910390fd5b6001600360008473ffffffffffffffffffffffffffffffffffffffff1673ffffffffffffffffffffffffffffffffffffffff16815260200190815260200160002060008282540192505081905550816002600083815260200190815260200160002060006101000a81548173ffffffffffffffffffffffffffffffffffffffff021916908373ffffffffffffffffffffffffffffffffffffffff160217905550808273ffffffffffffffffffffffffffffffffffffffff16600073ffffffffffffffffffffffffffffffffffffffff167fddf252ad1be2c89b69c2b068fc378daa952ba7f163c4a11628f55a4df523b3ef60405160405180910390a4611c53600083836001611f88565b5050565b60006002600083815260200190815260200160002060009054906101000a900473ffffffffffffffffffffffffffffffffffffffff169050919050565b8173ffffffffffffffffffffffffffffffffffffffff168373ffffffffffffffffffffffffffffffffffffffff1603611d02576040517f08c379a0000000000000000000000000000000000000000000000000000000008152600401611cf9906136e9565b60405180910390fd5b80600560008573ffffffffffffffffffffffffffffffffffffffff1673ffffffffffffffffffffffffffffffffffffffff16815260200190815260200160002060008473ffffffffffffffffffffffffffffffffffffffff1673ffffffffffffffffffffffffffffffffffffffff16815260200190815260200160002060006101000a81548160ff0219169083151502179055508173ffffffffffffffffffffffffffffffffffffffff168373ffffffffffffffffffffffffffffffffffffffff167f17307eab39ab6107e8899845ad3d59bd9653f200f220920489ca2b5937696c3183604051611df3919061238d565b60405180910390a3505050565b611e0b848484611741565b611e1784848484611f8e565b611e56576040517f08c379a0000000000000000000000000000000000000000000000000000000008152600401611e4d9061377b565b60405180910390fd5b50505050565b606060405180602001604052806000815250905090565b606060006001611e8284612115565b01905060008167ffffffffffffffff811115611ea157611ea06125e2565b5b6040519080825280601f01601f191660200182016040528015611ed35781602001600182028036833780820191505090505b509050600082602001820190505b600115611f36578080600190039150507f3031323334353637383961626364656600000000000000000000000000000000600a86061a8153600a8581611f2a57611f2961379b565b5b04945060008503611ee1575b819350505050919050565b60008073ffffffffffffffffffffffffffffffffffffffff16611f6383611c57565b73ffffffffffffffffffffffffffffffffffffffff1614159050919050565b50505050565b50505050565b6000611faf8473ffffffffffffffffffffffffffffffffffffffff16612268565b15612108578373ffffffffffffffffffffffffffffffffffffffff1663150b7a02611fd86115eb565b8786866040518563ffffffff1660e01b8152600401611ffa9493929190613814565b6020604051808303816000875af192505050801561203657506040513d601f19601f820116820180604052508101906120339190613875565b60015b6120b8573d8060008114612066576040519150601f19603f3d011682016040523d82523d6000602084013e61206b565b606091505b5060008151036120b0576040517f08c379a00000000000000000000000000000000000000000000000000000000081526004016120a79061377b565b60405180910390fd5b805181602001fd5b63150b7a0260e01b7bffffffffffffffffffffffffffffffffffffffffffffffffffffffff1916817bffffffffffffffffffffffffffffffffffffffffffffffffffffffff19161491505061210d565b600190505b949350505050565b600080600090507a184f03e93ff9f4daa797ed6e38ed64bf6a1f0100000000000000008310612173577a184f03e93ff9f4daa797ed6e38ed64bf6a1f01000000000000000083816121695761216861379b565b5b0492506040810190505b6d04ee2d6d415b85acef810000000083106121b0576d04ee2d6d415b85acef810000000083816121a6576121a561379b565b5b0492506020810190505b662386f26fc1000083106121df57662386f26fc1000083816121d5576121d461379b565b5b0492506010810190505b6305f5e1008310612208576305f5e10083816121fe576121fd61379b565b5b0492506008810190505b612710831061222d5761271083816122235761222261379b565b5b0492506004810190505b6064831061225057606483816122465761224561379b565b5b0492506002810190505b600a831061225f576001810190505b80915050919050565b6000808273ffffffffffffffffffffffffffffffffffffffff163b119050919050565b60405180610120016040528060608152602001606081526020016060815260200160008152602001600081526020016000815260200160008152602001600015158152602001606081525090565b6000604051905090565b600080fd5b600080fd5b60007fffffffff0000000000000000000000000000000000000000000000000000000082169050919050565b612322816122ed565b811461232d57600080fd5b50565b60008135905061233f81612319565b92915050565b60006020828403121561235b5761235a6122e3565b5b600061236984828501612330565b91505092915050565b60008115159050919050565b61238781612372565b82525050565b60006020820190506123a2600083018461237e565b92915050565b600081519050919050565b600082825260208201905092915050565b60005b838110156123e25780820151818401526020810190506123c7565b60008484015250505050565b6000601f19601f8301169050919050565b600061240a826123a8565b61241481856123b3565b93506124248185602086016123c4565b61242d816123ee565b840191505092915050565b6000602082019050818103600083015261245281846123ff565b905092915050565b6000819050919050565b61246d8161245a565b811461247857600080fd5b50565b60008135905061248a81612464565b92915050565b6000602082840312156124a6576124a56122e3565b5b60006124b48482850161247b565b91505092915050565b600073ffffffffffffffffffffffffffffffffffffffff82169050919050565b60006124e8826124bd565b9050919050565b6124f8816124dd565b82525050565b600060208201905061251360008301846124ef565b92915050565b612522816124dd565b811461252d57600080fd5b50565b60008135905061253f81612519565b92915050565b6000806040838503121561255c5761255b6122e3565b5b600061256a85828601612530565b925050602061257b8582860161247b565b9150509250929050565b60008060006060848603121561259e5761259d6122e3565b5b60006125ac86828701612530565b93505060206125bd86828701612530565b92505060406125ce8682870161247b565b9150509250925092565b600080fd5b600080fd5b7f4e487b7100000000000000000000000000000000000000000000000000000000600052604160045260246000fd5b61261a826123ee565b810181811067ffffffffffffffff82111715612639576126386125e2565b5b80604052505050565b600061264c6122d9565b90506126588282612611565b919050565b600067ffffffffffffffff821115612678576126776125e2565b5b612681826123ee565b9050602081019050919050565b82818337600083830152505050565b60006126b06126ab8461265d565b612642565b9050828152602081018484840111156126cc576126cb6125dd565b5b6126d784828561268e565b509392505050565b600082601f8301126126f4576126f36125d8565b5b813561270484826020860161269d565b91505092915050565b600067ffffffffffffffff821115612728576127276125e2565b5b612731826123ee565b9050602081019050919050565b600061275161274c8461270d565b612642565b90508281526020810184848401111561276d5761276c6125dd565b5b61277884828561268e565b509392505050565b600082601f830112612795576127946125d8565b5b81356127a584826020860161273e565b91505092915050565b600080600080600080600080610100898b0312156127cf576127ce6122e3565b5b60006127dd8b828c0161247b565b98505060206127ee8b828c0161247b565b975050604089013567ffffffffffffffff81111561280f5761280e6122e8565b5b61281b8b828c016126df565b965050606089013567ffffffffffffffff81111561283c5761283b6122e8565b5b6128488b828c016126df565b955050608089013567ffffffffffffffff811115612869576128686122e8565b5b6128758b828c016126df565b94505060a06128868b828c0161247b565b93505060c06128978b828c0161247b565b92505060e089013567ffffffffffffffff8111156128b8576128b76122e8565b5b6128c48b828c01612780565b9150509295985092959890939650565b6000602082840312156128ea576128e96122e3565b5b60006128f884828501612530565b91505092915050565b61290a8161245a565b82525050565b60006020820190506129256000830184612901565b92915050565b61293481612372565b811461293f57600080fd5b50565b6000813590506129518161292b565b92915050565b6000806040838503121561296e5761296d6122e3565b5b600061297c85828601612530565b925050602061298d85828601612942565b9150509250929050565b600080600080608085870312156129b1576129b06122e3565b5b60006129bf87828801612530565b94505060206129d087828801612530565b93505060406129e18782880161247b565b925050606085013567ffffffffffffffff811115612a0257612a016122e8565b5b612a0e87828801612780565b91505092959194509250565b60008060408385031215612a3157612a306122e3565b5b6000612a3f85828601612530565b9250506020612a5085828601612530565b9150509250929050565b600082825260208201905092915050565b6000612a76826123a8565b612a808185612a5a565b9350612a908185602086016123c4565b612a99816123ee565b840191505092915050565b612aad8161245a565b82525050565b612abc81612372565b82525050565b600081519050919050565b600082825260208201905092915050565b6000612ae982612ac2565b612af38185612acd565b9350612b038185602086016123c4565b612b0c816123ee565b840191505092915050565b6000610120830160008301518482036000860152612b358282612a6b565b91505060208301518482036020860152612b4f8282612a6b565b91505060408301518482036040860152612b698282612a6b565b9150506060830151612b7e6060860182612aa4565b506080830151612b916080860182612aa4565b5060a0830151612ba460a0860182612aa4565b5060c0830151612bb760c0860182612aa4565b5060e0830151612bca60e0860182612ab3565b50610100830151848203610100860152612be48282612ade565b9150508091505092915050565b60006020820190508181036000830152612c0b8184612b17565b905092915050565b7f4e487b7100000000000000000000000000000000000000000000000000000000600052602260045260246000fd5b60006002820490506001821680612c5a57607f821691505b602082108103612c6d57612c6c612c13565b5b50919050565b7f4552433732313a20617070726f76616c20746f2063757272656e74206f776e6560008201527f7200000000000000000000000000000000000000000000000000000000000000602082015250565b6000612ccf6021836123b3565b9150612cda82612c73565b604082019050919050565b60006020820190508181036000830152612cfe81612cc2565b9050919050565b7f4552433732313a20617070726f76652063616c6c6572206973206e6f7420746f60008201527f6b656e206f776e6572206f7220617070726f76656420666f7220616c6c000000602082015250565b6000612d61603d836123b3565b9150612d6c82612d05565b604082019050919050565b60006020820190508181036000830152612d9081612d54565b9050919050565b7f4552433732313a2063616c6c6572206973206e6f7420746f6b656e206f776e6560008201527f72206f7220617070726f76656400000000000000000000000000000000000000602082015250565b6000612df3602d836123b3565b9150612dfe82612d97565b604082019050919050565b60006020820190508181036000830152612e2281612de6565b9050919050565b7f4e487b7100000000000000000000000000000000000000000000000000000000600052603260045260246000fd5b7f4e487b7100000000000000000000000000000000000000000000000000000000600052601160045260246000fd5b6000612e928261245a565b91507fffffffffffffffffffffffffffffffffffffffffffffffffffffffffffffffff8203612ec457612ec3612e58565b5b600182019050919050565b60008190508160005260206000209050919050565b60006020601f8301049050919050565b600082821b905092915050565b600060088302612f317fffffffffffffffffffffffffffffffffffffffffffffffffffffffffffffffff82612ef4565b612f3b8683612ef4565b95508019841693508086168417925050509392505050565b6000819050919050565b6000612f78612f73612f6e8461245a565b612f53565b61245a565b9050919050565b6000819050919050565b612f9283612f5d565b612fa6612f9e82612f7f565b848454612f01565b825550505050565b600090565b612fbb612fae565b612fc6818484612f89565b505050565b5b81811015612fea57612fdf600082612fb3565b600181019050612fcc565b5050565b601f82111561302f5761300081612ecf565b61300984612ee4565b81016020851015613018578190505b61302c61302485612ee4565b830182612fcb565b50505b505050565b600082821c905092915050565b600061305260001984600802613034565b1980831691505092915050565b600061306b8383613041565b9150826002028217905092915050565b613084826123a8565b67ffffffffffffffff81111561309d5761309c6125e2565b5b6130a78254612c42565b6130b2828285612fee565b600060209050601f8311600181146130e557600084156130d3578287015190505b6130dd858261305f565b865550613145565b601f1984166130f386612ecf565b60005b8281101561311b578489015182556001820191506020850194506020810190506130f6565b868310156131385784890151613134601f891682613041565b8355505b6001600288020188555050505b505050505050565b60008190508160005260206000209050919050565b601f8211156131a3576131748161314d565b61317d84612ee4565b8101602085101561318c578190505b6131a061319885612ee4565b830182612fcb565b50505b505050565b6131b182612ac2565b67ffffffffffffffff8111156131ca576131c96125e2565b5b6131d48254612c42565b6131df828285613162565b600060209050601f8311600181146132125760008415613200578287015190505b61320a858261305f565b865550613272565b601f1984166132208661314d565b60005b8281101561324857848901518255600182019150602085019450602081019050613223565b868310156132655784890151613261601f891682613041565b8355505b6001600288020188555050505b505050505050565b60006132858261245a565b91506132908361245a565b92508282019050808211156132a8576132a7612e58565b5b92915050565b7f63616e2774206269642c206d616b652061206869676865722042696400000000600082015250565b60006132e4601c836123b3565b91506132ef826132ae565b602082019050919050565b60006020820190508181036000830152613313816132d7565b9050919050565b600060408201905061332f60008301856124ef565b61333c6020830184612901565b9392505050565b7f4552433732313a20696e76616c696420746f6b656e2049440000000000000000600082015250565b60006133796018836123b3565b915061338482613343565b602082019050919050565b600060208201905081810360008301526133a88161336c565b9050919050565b7f4552433732313a2061646472657373207a65726f206973206e6f74206120766160008201527f6c6964206f776e65720000000000000000000000000000000000000000000000602082015250565b600061340b6029836123b3565b9150613416826133af565b604082019050919050565b6000602082019050818103600083015261343a816133fe565b9050919050565b600081905092915050565b6000613457826123a8565b6134618185613441565b93506134718185602086016123c4565b80840191505092915050565b6000613489828561344c565b9150613495828461344c565b91508190509392505050565b7f4552433732313a207472616e736665722066726f6d20696e636f72726563742060008201527f6f776e6572000000000000000000000000000000000000000000000000000000602082015250565b60006134fd6025836123b3565b9150613508826134a1565b604082019050919050565b6000602082019050818103600083015261352c816134f0565b9050919050565b7f4552433732313a207472616e7366657220746f20746865207a65726f2061646460008201527f7265737300000000000000000000000000000000000000000000000000000000602082015250565b600061358f6024836123b3565b915061359a82613533565b604082019050919050565b600060208201905081810360008301526135be81613582565b9050919050565b7f4552433732313a206d696e7420746f20746865207a65726f2061646472657373600082015250565b60006135fb6020836123b3565b9150613606826135c5565b602082019050919050565b6000602082019050818103600083015261362a816135ee565b9050919050565b7f4552433732313a20746f6b656e20616c7265616479206d696e74656400000000600082015250565b6000613667601c836123b3565b915061367282613631565b602082019050919050565b600060208201905081810360008301526136968161365a565b9050919050565b7f4552433732313a20617070726f766520746f2063616c6c657200000000000000600082015250565b60006136d36019836123b3565b91506136de8261369d565b602082019050919050565b60006020820190508181036000830152613702816136c6565b9050919050565b7f4552433732313a207472616e7366657220746f206e6f6e20455243373231526560008201527f63656976657220696d706c656d656e7465720000000000000000000000000000602082015250565b60006137656032836123b3565b915061377082613709565b604082019050919050565b6000602082019050818103600083015261379481613758565b9050919050565b7f4e487b7100000000000000000000000000000000000000000000000000000000600052601260045260246000fd5b600082825260208201905092915050565b60006137e682612ac2565b6137f081856137ca565b93506138008185602086016123c4565b613809816123ee565b840191505092915050565b600060808201905061382960008301876124ef565b61383660208301866124ef565b6138436040830185612901565b818103606083015261385581846137db565b905095945050505050565b60008151905061386f81612319565b92915050565b60006020828403121561388b5761388a6122e3565b5b600061389984828501613860565b9150509291505056fea2646970667358221220f74bc25d9535b26144089410411bcdbc20c1244e8957da9806a7651582e1de0564736f6c63430008130033",
  "immutableReferences": {},
  "source": "// SPDX-License-Identifier: MIT\r\npragma solidity >=0.8.2 <0.9.0;\r\n\r\nimport \"./Land.sol\";\r\n\r\ncontract LandSale is LandRegistration {\r\n    struct BidDetail {\r\n        uint256 highestBid;\r\n        address highestBidder;\r\n        mapping(address => uint256) bids;\r\n        address[] bidders;\r\n    }\r\n    mapping(uint256 => BidDetail) bidDetails;\r\n\r\n    function bid(uint256 landID) public payable {\r\n        require(msg.sender != ownerOf(landID));\r\n        require(\r\n            bidDetails[landID].bids[msg.sender] + msg.value >\r\n                bidDetails[landID].highestBid,\r\n            \"can't bid, make a higher Bid\"\r\n        );\r\n        bidDetails[landID].highestBidder = msg.sender;\r\n        bidDetails[landID].bidders.push(msg.sender);\r\n        bidDetails[landID].highestBid =\r\n            bidDetails[landID].bids[msg.sender] +\r\n            msg.value;\r\n        bidDetails[landID].bids[msg.sender] += msg.value;\r\n        emit BidEvent(\r\n            landID,\r\n            bidDetails[landID].highestBidder,\r\n            bidDetails[landID].highestBid\r\n        );\r\n    }\r\n\r\n    function acceptBid(uint256 landID) public {\r\n        payable(msg.sender).transfer(bidDetails[landID].highestBid);\r\n        safeTransferFrom(msg.sender, bidDetails[landID].highestBidder, landID);\r\n        for (uint256 i = 0; i < bidDetails[landID].bidders.length; i++) {\r\n            if (\r\n                bidDetails[landID].bidders[i] ==\r\n                bidDetails[landID].highestBidder\r\n            ) {\r\n                continue;\r\n            }\r\n            payable(bidDetails[landID].bidders[i]).transfer(\r\n                bidDetails[landID].bids[bidDetails[landID].bidders[i]]\r\n            );\r\n        }\r\n        landDetails[landID].salesStatus = true;\r\n    }\r\n\r\n    fallback() external {\r\n        revert();\r\n    }\r\n\r\n    event BidEvent(\r\n        uint256 indexed landID,\r\n        address highestBidder,\r\n        uint256 highestBid\r\n    );\r\n}\r\n",
  "sourcePath": "D:\\KBA\\land-marketplace-dapp\\contracts\\LandSale.sol",
  "compiler": {
    "name": "solc",
    "version": "0.8.19+commit.7dd6d404.Emscripten.clang"
  },
  "schemaVersion": "3.4.13",
  "updatedAt": "2023-05-16T01:53:06.742Z",
  "devdoc": {
    "events": {
      "Approval(address,address,uint256)": {
        "details": "Emitted when `owner` enables `approved` to manage the `tokenId` token."
      },
      "ApprovalForAll(address,address,bool)": {
        "details": "Emitted when `owner` enables or disables (`approved`) `operator` to manage all of its assets."
      },
      "Transfer(address,address,uint256)": {
        "details": "Emitted when `tokenId` token is transferred from `from` to `to`."
      }
    },
    "kind": "dev",
    "methods": {
      "approve(address,uint256)": {
        "details": "See {IERC721-approve}."
      },
      "balanceOf(address)": {
        "details": "See {IERC721-balanceOf}."
      },
      "getApproved(uint256)": {
        "details": "See {IERC721-getApproved}."
      },
      "isApprovedForAll(address,address)": {
        "details": "See {IERC721-isApprovedForAll}."
      },
      "name()": {
        "details": "See {IERC721Metadata-name}."
      },
      "ownerOf(uint256)": {
        "details": "See {IERC721-ownerOf}."
      },
      "safeTransferFrom(address,address,uint256)": {
        "details": "See {IERC721-safeTransferFrom}."
      },
      "safeTransferFrom(address,address,uint256,bytes)": {
        "details": "See {IERC721-safeTransferFrom}."
      },
      "setApprovalForAll(address,bool)": {
        "details": "See {IERC721-setApprovalForAll}."
      },
      "supportsInterface(bytes4)": {
        "details": "See {IERC165-supportsInterface}."
      },
      "symbol()": {
        "details": "See {IERC721Metadata-symbol}."
      },
      "tokenURI(uint256)": {
        "details": "See {IERC721Metadata-tokenURI}."
      },
      "transferFrom(address,address,uint256)": {
        "details": "See {IERC721-transferFrom}."
      }
    },
    "version": 1
  },
  "userdoc": {
    "kind": "user",
    "methods": {},
    "version": 1
  }
}