{
  "contractName": "LandRegistration",
  "abi": [
    {
      "inputs": [],
      "stateMutability": "nonpayable",
      "type": "constructor"
    },
    {
      "anonymous": false,
      "inputs": [
        {
          "indexed": true,
          "internalType": "address",
          "name": "owner",
          "type": "address"
        },
        {
          "indexed": true,
          "internalType": "address",
          "name": "approved",
          "type": "address"
        },
        {
          "indexed": true,
          "internalType": "uint256",
          "name": "tokenId",
          "type": "uint256"
        }
      ],
      "name": "Approval",
      "type": "event"
    },
    {
      "anonymous": false,
      "inputs": [
        {
          "indexed": true,
          "internalType": "address",
          "name": "owner",
          "type": "address"
        },
        {
          "indexed": true,
          "internalType": "address",
          "name": "operator",
          "type": "address"
        },
        {
          "indexed": false,
          "internalType": "bool",
          "name": "approved",
          "type": "bool"
        }
      ],
      "name": "ApprovalForAll",
      "type": "event"
    },
    {
      "anonymous": false,
      "inputs": [
        {
          "indexed": true,
          "internalType": "address",
          "name": "from",
          "type": "address"
        },
        {
          "indexed": true,
          "internalType": "address",
          "name": "to",
          "type": "address"
        },
        {
          "indexed": true,
          "internalType": "uint256",
          "name": "tokenId",
          "type": "uint256"
        }
      ],
      "name": "Transfer",
      "type": "event"
    },
    {
      "inputs": [
        {
          "internalType": "address",
          "name": "to",
          "type": "address"
        },
        {
          "internalType": "uint256",
          "name": "tokenId",
          "type": "uint256"
        }
      ],
      "name": "approve",
      "outputs": [],
      "stateMutability": "nonpayable",
      "type": "function"
    },
    {
      "inputs": [
        {
          "internalType": "address",
          "name": "owner",
          "type": "address"
        }
      ],
      "name": "balanceOf",
      "outputs": [
        {
          "internalType": "uint256",
          "name": "",
          "type": "uint256"
        }
      ],
      "stateMutability": "view",
      "type": "function"
    },
    {
      "inputs": [
        {
          "internalType": "uint256",
          "name": "tokenId",
          "type": "uint256"
        }
      ],
      "name": "getApproved",
      "outputs": [
        {
          "internalType": "address",
          "name": "",
          "type": "address"
        }
      ],
      "stateMutability": "view",
      "type": "function"
    },
    {
      "inputs": [
        {
          "internalType": "address",
          "name": "owner",
          "type": "address"
        },
        {
          "internalType": "address",
          "name": "operator",
          "type": "address"
        }
      ],
      "name": "isApprovedForAll",
      "outputs": [
        {
          "internalType": "bool",
          "name": "",
          "type": "bool"
        }
      ],
      "stateMutability": "view",
      "type": "function"
    },
    {
      "inputs": [],
      "name": "name",
      "outputs": [
        {
          "internalType": "string",
          "name": "",
          "type": "string"
        }
      ],
      "stateMutability": "view",
      "type": "function"
    },
    {
      "inputs": [
        {
          "internalType": "uint256",
          "name": "tokenId",
          "type": "uint256"
        }
      ],
      "name": "ownerOf",
      "outputs": [
        {
          "internalType": "address",
          "name": "",
          "type": "address"
        }
      ],
      "stateMutability": "view",
      "type": "function"
    },
    {
      "inputs": [],
      "name": "registeredLandCount",
      "outputs": [
        {
          "internalType": "uint256",
          "name": "",
          "type": "uint256"
        }
      ],
      "stateMutability": "view",
      "type": "function"
    },
    {
      "inputs": [
        {
          "internalType": "address",
          "name": "from",
          "type": "address"
        },
        {
          "internalType": "address",
          "name": "to",
          "type": "address"
        },
        {
          "internalType": "uint256",
          "name": "tokenId",
          "type": "uint256"
        }
      ],
      "name": "safeTransferFrom",
      "outputs": [],
      "stateMutability": "nonpayable",
      "type": "function"
    },
    {
      "inputs": [
        {
          "internalType": "address",
          "name": "from",
          "type": "address"
        },
        {
          "internalType": "address",
          "name": "to",
          "type": "address"
        },
        {
          "internalType": "uint256",
          "name": "tokenId",
          "type": "uint256"
        },
        {
          "internalType": "bytes",
          "name": "data",
          "type": "bytes"
        }
      ],
      "name": "safeTransferFrom",
      "outputs": [],
      "stateMutability": "nonpayable",
      "type": "function"
    },
    {
      "inputs": [
        {
          "internalType": "address",
          "name": "operator",
          "type": "address"
        },
        {
          "internalType": "bool",
          "name": "approved",
          "type": "bool"
        }
      ],
      "name": "setApprovalForAll",
      "outputs": [],
      "stateMutability": "nonpayable",
      "type": "function"
    },
    {
      "inputs": [
        {
          "internalType": "bytes4",
          "name": "interfaceId",
          "type": "bytes4"
        }
      ],
      "name": "supportsInterface",
      "outputs": [
        {
          "internalType": "bool",
          "name": "",
          "type": "bool"
        }
      ],
      "stateMutability": "view",
      "type": "function"
    },
    {
      "inputs": [],
      "name": "symbol",
      "outputs": [
        {
          "internalType": "string",
          "name": "",
          "type": "string"
        }
      ],
      "stateMutability": "view",
      "type": "function"
    },
    {
      "inputs": [
        {
          "internalType": "uint256",
          "name": "tokenId",
          "type": "uint256"
        }
      ],
      "name": "tokenURI",
      "outputs": [
        {
          "internalType": "string",
          "name": "",
          "type": "string"
        }
      ],
      "stateMutability": "view",
      "type": "function"
    },
    {
      "inputs": [
        {
          "internalType": "address",
          "name": "from",
          "type": "address"
        },
        {
          "internalType": "address",
          "name": "to",
          "type": "address"
        },
        {
          "internalType": "uint256",
          "name": "tokenId",
          "type": "uint256"
        }
      ],
      "name": "transferFrom",
      "outputs": [],
      "stateMutability": "nonpayable",
      "type": "function"
    },
    {
      "inputs": [
        {
          "internalType": "uint256",
          "name": "surveyNo",
          "type": "uint256"
        },
        {
          "internalType": "uint256",
          "name": "blockNo",
          "type": "uint256"
        },
        {
          "internalType": "string",
          "name": "province",
          "type": "string"
        },
        {
          "internalType": "string",
          "name": "district",
          "type": "string"
        },
        {
          "internalType": "string",
          "name": "village",
          "type": "string"
        },
        {
          "internalType": "uint256",
          "name": "landValue",
          "type": "uint256"
        },
        {
          "internalType": "uint256",
          "name": "area",
          "type": "uint256"
        },
        {
          "internalType": "bytes",
          "name": "documentHash",
          "type": "bytes"
        }
      ],
      "name": "registerNewLand",
      "outputs": [],
      "stateMutability": "nonpayable",
      "type": "function"
    },
    {
      "inputs": [
        {
          "internalType": "uint256",
          "name": "landID",
          "type": "uint256"
        }
      ],
      "name": "getLandDetails",
      "outputs": [
        {
          "components": [
            {
              "internalType": "string",
              "name": "province",
              "type": "string"
            },
            {
              "internalType": "string",
              "name": "district",
              "type": "string"
            },
            {
              "internalType": "string",
              "name": "village",
              "type": "string"
            },
            {
              "internalType": "uint256",
              "name": "blockNo",
              "type": "uint256"
            },
            {
              "internalType": "uint256",
              "name": "surveyNo",
              "type": "uint256"
            },
            {
              "internalType": "uint256",
              "name": "landValue",
              "type": "uint256"
            },
            {
              "internalType": "uint256",
              "name": "area",
              "type": "uint256"
            },
            {
              "internalType": "bool",
              "name": "salesStatus",
              "type": "bool"
            },
            {
              "internalType": "bytes",
              "name": "documentHash",
              "type": "bytes"
            }
          ],
          "internalType": "struct LandRegistration.LandDetail",
          "name": "",
          "type": "tuple"
        }
      ],
      "stateMutability": "view",
      "type": "function"
    }
  ],
  "bytecode": "0x608060405260006007553480156200001657600080fd5b506040518060400160405280600481526020017f4c616e64000000000000000000000000000000000000000000000000000000008152506040518060400160405280600381526020017f4c4e440000000000000000000000000000000000000000000000000000000000815250816000908162000094919062000329565b508060019081620000a6919062000329565b50505062000410565b600081519050919050565b7f4e487b7100000000000000000000000000000000000000000000000000000000600052604160045260246000fd5b7f4e487b7100000000000000000000000000000000000000000000000000000000600052602260045260246000fd5b600060028204905060018216806200013157607f821691505b602082108103620001475762000146620000e9565b5b50919050565b60008190508160005260206000209050919050565b60006020601f8301049050919050565b600082821b905092915050565b600060088302620001b17fffffffffffffffffffffffffffffffffffffffffffffffffffffffffffffffff8262000172565b620001bd868362000172565b95508019841693508086168417925050509392505050565b6000819050919050565b6000819050919050565b60006200020a62000204620001fe84620001d5565b620001df565b620001d5565b9050919050565b6000819050919050565b6200022683620001e9565b6200023e620002358262000211565b8484546200017f565b825550505050565b600090565b6200025562000246565b620002628184846200021b565b505050565b5b818110156200028a576200027e6000826200024b565b60018101905062000268565b5050565b601f821115620002d957620002a3816200014d565b620002ae8462000162565b81016020851015620002be578190505b620002d6620002cd8562000162565b83018262000267565b50505b505050565b600082821c905092915050565b6000620002fe60001984600802620002de565b1980831691505092915050565b6000620003198383620002eb565b9150826002028217905092915050565b6200033482620000af565b67ffffffffffffffff81111562000350576200034f620000ba565b5b6200035c825462000118565b620003698282856200028e565b600060209050601f831160018114620003a157600084156200038c578287015190505b6200039885826200030b565b86555062000408565b601f198416620003b1866200014d565b60005b82811015620003db57848901518255600182019150602085019450602081019050620003b4565b86831015620003fb5784890151620003f7601f891682620002eb565b8355505b6001600288020188555050505b505050505050565b61306c80620004206000396000f3fe608060405234801561001057600080fd5b50600436106101005760003560e01c806370a0823111610097578063b88d4fde11610066578063b88d4fde146102ab578063c87b56dd146102c7578063e985e9c5146102f7578063fe0cb7dc1461032757610100565b806370a082311461022357806395d89b4114610253578063a22cb46514610271578063a7613a7d1461028d57610100565b806323b872dd116100d357806323b872dd1461019f578063395044eb146101bb57806342842e0e146101d75780636352211e146101f357610100565b806301ffc9a71461010557806306fdde0314610135578063081812fc14610153578063095ea7b314610183575b600080fd5b61011f600480360381019061011a9190611be5565b610357565b60405161012c9190611c2d565b60405180910390f35b61013d610439565b60405161014a9190611cd8565b60405180910390f35b61016d60048036038101906101689190611d30565b6104cb565b60405161017a9190611d9e565b60405180910390f35b61019d60048036038101906101989190611de5565b610511565b005b6101b960048036038101906101b49190611e25565b610628565b005b6101d560048036038101906101d0919061204e565b610688565b005b6101f160048036038101906101ec9190611e25565b6107b4565b005b61020d60048036038101906102089190611d30565b6107d4565b60405161021a9190611d9e565b60405180910390f35b61023d60048036038101906102389190612174565b61085a565b60405161024a91906121b0565b60405180910390f35b61025b610911565b6040516102689190611cd8565b60405180910390f35b61028b600480360381019061028691906121f7565b6109a3565b005b6102956109b9565b6040516102a291906121b0565b60405180910390f35b6102c560048036038101906102c09190612237565b6109bf565b005b6102e160048036038101906102dc9190611d30565b610a21565b6040516102ee9190611cd8565b60405180910390f35b610311600480360381019061030c91906122ba565b610a89565b60405161031e9190611c2d565b60405180910390f35b610341600480360381019061033c9190611d30565b610b1d565b60405161034e9190612491565b60405180910390f35b60007f80ac58cd000000000000000000000000000000000000000000000000000000007bffffffffffffffffffffffffffffffffffffffffffffffffffffffff1916827bffffffffffffffffffffffffffffffffffffffffffffffffffffffff1916148061042257507f5b5e139f000000000000000000000000000000000000000000000000000000007bffffffffffffffffffffffffffffffffffffffffffffffffffffffff1916827bffffffffffffffffffffffffffffffffffffffffffffffffffffffff1916145b80610432575061043182610dd6565b5b9050919050565b606060008054610448906124e2565b80601f0160208091040260200160405190810160405280929190818152602001828054610474906124e2565b80156104c15780601f10610496576101008083540402835291602001916104c1565b820191906000526020600020905b8154815290600101906020018083116104a457829003601f168201915b5050505050905090565b60006104d682610e40565b6004600083815260200190815260200160002060009054906101000a900473ffffffffffffffffffffffffffffffffffffffff169050919050565b600061051c826107d4565b90508073ffffffffffffffffffffffffffffffffffffffff168373ffffffffffffffffffffffffffffffffffffffff160361058c576040517f08c379a000000000000000000000000000000000000000000000000000000000815260040161058390612585565b60405180910390fd5b8073ffffffffffffffffffffffffffffffffffffffff166105ab610e8b565b73ffffffffffffffffffffffffffffffffffffffff1614806105da57506105d9816105d4610e8b565b610a89565b5b610619576040517f08c379a000000000000000000000000000000000000000000000000000000000815260040161061090612617565b60405180910390fd5b6106238383610e93565b505050565b610639610633610e8b565b82610f4c565b610678576040517f08c379a000000000000000000000000000000000000000000000000000000000815260040161066f906126a9565b60405180910390fd5b610683838383610fe1565b505050565b6040518061012001604052808781526020018681526020018581526020018981526020018881526020018481526020018381526020016000151581526020018281525060066000600754815260200190815260200160002060008201518160000190816106f59190612875565b50602082015181600101908161070b9190612875565b5060408201518160020190816107219190612875565b50606082015181600301556080820151816004015560a0820151816005015560c0820151816006015560e08201518160070160006101000a81548160ff02191690831515021790555061010082015181600801908161078091906129a2565b50905050610790336007546112da565b6001600760008282546107a39190612aa3565b925050819055505050505050505050565b6107cf838383604051806020016040528060008152506109bf565b505050565b6000806107e0836114f7565b9050600073ffffffffffffffffffffffffffffffffffffffff168173ffffffffffffffffffffffffffffffffffffffff1603610851576040517f08c379a000000000000000000000000000000000000000000000000000000000815260040161084890612b23565b60405180910390fd5b80915050919050565b60008073ffffffffffffffffffffffffffffffffffffffff168273ffffffffffffffffffffffffffffffffffffffff16036108ca576040517f08c379a00000000000000000000000000000000000000000000000000000000081526004016108c190612bb5565b60405180910390fd5b600360008373ffffffffffffffffffffffffffffffffffffffff1673ffffffffffffffffffffffffffffffffffffffff168152602001908152602001600020549050919050565b606060018054610920906124e2565b80601f016020809104026020016040519081016040528092919081815260200182805461094c906124e2565b80156109995780601f1061096e57610100808354040283529160200191610999565b820191906000526020600020905b81548152906001019060200180831161097c57829003601f168201915b5050505050905090565b6109b56109ae610e8b565b8383611534565b5050565b60075481565b6109d06109ca610e8b565b83610f4c565b610a0f576040517f08c379a0000000000000000000000000000000000000000000000000000000008152600401610a06906126a9565b60405180910390fd5b610a1b848484846116a0565b50505050565b6060610a2c82610e40565b6000610a366116fc565b90506000815111610a565760405180602001604052806000815250610a81565b80610a6084611713565b604051602001610a71929190612c11565b6040516020818303038152906040525b915050919050565b6000600560008473ffffffffffffffffffffffffffffffffffffffff1673ffffffffffffffffffffffffffffffffffffffff16815260200190815260200160002060008373ffffffffffffffffffffffffffffffffffffffff1673ffffffffffffffffffffffffffffffffffffffff16815260200190815260200160002060009054906101000a900460ff16905092915050565b610b25611b2b565b6006600083815260200190815260200160002060405180610120016040529081600082018054610b54906124e2565b80601f0160208091040260200160405190810160405280929190818152602001828054610b80906124e2565b8015610bcd5780601f10610ba257610100808354040283529160200191610bcd565b820191906000526020600020905b815481529060010190602001808311610bb057829003601f168201915b50505050508152602001600182018054610be6906124e2565b80601f0160208091040260200160405190810160405280929190818152602001828054610c12906124e2565b8015610c5f5780601f10610c3457610100808354040283529160200191610c5f565b820191906000526020600020905b815481529060010190602001808311610c4257829003601f168201915b50505050508152602001600282018054610c78906124e2565b80601f0160208091040260200160405190810160405280929190818152602001828054610ca4906124e2565b8015610cf15780601f10610cc657610100808354040283529160200191610cf1565b820191906000526020600020905b815481529060010190602001808311610cd457829003601f168201915b50505050508152602001600382015481526020016004820154815260200160058201548152602001600682015481526020016007820160009054906101000a900460ff16151515158152602001600882018054610d4d906124e2565b80601f0160208091040260200160405190810160405280929190818152602001828054610d79906124e2565b8015610dc65780601f10610d9b57610100808354040283529160200191610dc6565b820191906000526020600020905b815481529060010190602001808311610da957829003601f168201915b5050505050815250509050919050565b60007f01ffc9a7000000000000000000000000000000000000000000000000000000007bffffffffffffffffffffffffffffffffffffffffffffffffffffffff1916827bffffffffffffffffffffffffffffffffffffffffffffffffffffffff1916149050919050565b610e49816117e1565b610e88576040517f08c379a0000000000000000000000000000000000000000000000000000000008152600401610e7f90612b23565b60405180910390fd5b50565b600033905090565b816004600083815260200190815260200160002060006101000a81548173ffffffffffffffffffffffffffffffffffffffff021916908373ffffffffffffffffffffffffffffffffffffffff160217905550808273ffffffffffffffffffffffffffffffffffffffff16610f06836107d4565b73ffffffffffffffffffffffffffffffffffffffff167f8c5be1e5ebec7d5bd14f71427d1e84f3dd0314c0f7b2291e5b200ac8c7c3b92560405160405180910390a45050565b600080610f58836107d4565b90508073ffffffffffffffffffffffffffffffffffffffff168473ffffffffffffffffffffffffffffffffffffffff161480610f9a5750610f998185610a89565b5b80610fd857508373ffffffffffffffffffffffffffffffffffffffff16610fc0846104cb565b73ffffffffffffffffffffffffffffffffffffffff16145b91505092915050565b8273ffffffffffffffffffffffffffffffffffffffff16611001826107d4565b73ffffffffffffffffffffffffffffffffffffffff1614611057576040517f08c379a000000000000000000000000000000000000000000000000000000000815260040161104e90612ca7565b60405180910390fd5b600073ffffffffffffffffffffffffffffffffffffffff168273ffffffffffffffffffffffffffffffffffffffff16036110c6576040517f08c379a00000000000000000000000000000000000000000000000000000000081526004016110bd90612d39565b60405180910390fd5b6110d38383836001611822565b8273ffffffffffffffffffffffffffffffffffffffff166110f3826107d4565b73ffffffffffffffffffffffffffffffffffffffff1614611149576040517f08c379a000000000000000000000000000000000000000000000000000000000815260040161114090612ca7565b60405180910390fd5b6004600082815260200190815260200160002060006101000a81549073ffffffffffffffffffffffffffffffffffffffff02191690556001600360008573ffffffffffffffffffffffffffffffffffffffff1673ffffffffffffffffffffffffffffffffffffffff168152602001908152602001600020600082825403925050819055506001600360008473ffffffffffffffffffffffffffffffffffffffff1673ffffffffffffffffffffffffffffffffffffffff16815260200190815260200160002060008282540192505081905550816002600083815260200190815260200160002060006101000a81548173ffffffffffffffffffffffffffffffffffffffff021916908373ffffffffffffffffffffffffffffffffffffffff160217905550808273ffffffffffffffffffffffffffffffffffffffff168473ffffffffffffffffffffffffffffffffffffffff167fddf252ad1be2c89b69c2b068fc378daa952ba7f163c4a11628f55a4df523b3ef60405160405180910390a46112d58383836001611828565b505050565b600073ffffffffffffffffffffffffffffffffffffffff168273ffffffffffffffffffffffffffffffffffffffff1603611349576040517f08c379a000000000000000000000000000000000000000000000000000000000815260040161134090612da5565b60405180910390fd5b611352816117e1565b15611392576040517f08c379a000000000000000000000000000000000000000000000000000000000815260040161138990612e11565b60405180910390fd5b6113a0600083836001611822565b6113a9816117e1565b156113e9576040517f08c379a00000000000000000000000000000000000000000000000000000000081526004016113e090612e11565b60405180910390fd5b6001600360008473ffffffffffffffffffffffffffffffffffffffff1673ffffffffffffffffffffffffffffffffffffffff16815260200190815260200160002060008282540192505081905550816002600083815260200190815260200160002060006101000a81548173ffffffffffffffffffffffffffffffffffffffff021916908373ffffffffffffffffffffffffffffffffffffffff160217905550808273ffffffffffffffffffffffffffffffffffffffff16600073ffffffffffffffffffffffffffffffffffffffff167fddf252ad1be2c89b69c2b068fc378daa952ba7f163c4a11628f55a4df523b3ef60405160405180910390a46114f3600083836001611828565b5050565b60006002600083815260200190815260200160002060009054906101000a900473ffffffffffffffffffffffffffffffffffffffff169050919050565b8173ffffffffffffffffffffffffffffffffffffffff168373ffffffffffffffffffffffffffffffffffffffff16036115a2576040517f08c379a000000000000000000000000000000000000000000000000000000000815260040161159990612e7d565b60405180910390fd5b80600560008573ffffffffffffffffffffffffffffffffffffffff1673ffffffffffffffffffffffffffffffffffffffff16815260200190815260200160002060008473ffffffffffffffffffffffffffffffffffffffff1673ffffffffffffffffffffffffffffffffffffffff16815260200190815260200160002060006101000a81548160ff0219169083151502179055508173ffffffffffffffffffffffffffffffffffffffff168373ffffffffffffffffffffffffffffffffffffffff167f17307eab39ab6107e8899845ad3d59bd9653f200f220920489ca2b5937696c31836040516116939190611c2d565b60405180910390a3505050565b6116ab848484610fe1565b6116b78484848461182e565b6116f6576040517f08c379a00000000000000000000000000000000000000000000000000000000081526004016116ed90612f0f565b60405180910390fd5b50505050565b606060405180602001604052806000815250905090565b606060006001611722846119b5565b01905060008167ffffffffffffffff81111561174157611740611e82565b5b6040519080825280601f01601f1916602001820160405280156117735781602001600182028036833780820191505090505b509050600082602001820190505b6001156117d6578080600190039150507f3031323334353637383961626364656600000000000000000000000000000000600a86061a8153600a85816117ca576117c9612f2f565b5b04945060008503611781575b819350505050919050565b60008073ffffffffffffffffffffffffffffffffffffffff16611803836114f7565b73ffffffffffffffffffffffffffffffffffffffff1614159050919050565b50505050565b50505050565b600061184f8473ffffffffffffffffffffffffffffffffffffffff16611b08565b156119a8578373ffffffffffffffffffffffffffffffffffffffff1663150b7a02611878610e8b565b8786866040518563ffffffff1660e01b815260040161189a9493929190612fa8565b6020604051808303816000875af19250505080156118d657506040513d601f19601f820116820180604052508101906118d39190613009565b60015b611958573d8060008114611906576040519150601f19603f3d011682016040523d82523d6000602084013e61190b565b606091505b506000815103611950576040517f08c379a000000000000000000000000000000000000000000000000000000000815260040161194790612f0f565b60405180910390fd5b805181602001fd5b63150b7a0260e01b7bffffffffffffffffffffffffffffffffffffffffffffffffffffffff1916817bffffffffffffffffffffffffffffffffffffffffffffffffffffffff1916149150506119ad565b600190505b949350505050565b600080600090507a184f03e93ff9f4daa797ed6e38ed64bf6a1f0100000000000000008310611a13577a184f03e93ff9f4daa797ed6e38ed64bf6a1f0100000000000000008381611a0957611a08612f2f565b5b0492506040810190505b6d04ee2d6d415b85acef81000000008310611a50576d04ee2d6d415b85acef81000000008381611a4657611a45612f2f565b5b0492506020810190505b662386f26fc100008310611a7f57662386f26fc100008381611a7557611a74612f2f565b5b0492506010810190505b6305f5e1008310611aa8576305f5e1008381611a9e57611a9d612f2f565b5b0492506008810190505b6127108310611acd576127108381611ac357611ac2612f2f565b5b0492506004810190505b60648310611af05760648381611ae657611ae5612f2f565b5b0492506002810190505b600a8310611aff576001810190505b80915050919050565b6000808273ffffffffffffffffffffffffffffffffffffffff163b119050919050565b60405180610120016040528060608152602001606081526020016060815260200160008152602001600081526020016000815260200160008152602001600015158152602001606081525090565b6000604051905090565b600080fd5b600080fd5b60007fffffffff0000000000000000000000000000000000000000000000000000000082169050919050565b611bc281611b8d565b8114611bcd57600080fd5b50565b600081359050611bdf81611bb9565b92915050565b600060208284031215611bfb57611bfa611b83565b5b6000611c0984828501611bd0565b91505092915050565b60008115159050919050565b611c2781611c12565b82525050565b6000602082019050611c426000830184611c1e565b92915050565b600081519050919050565b600082825260208201905092915050565b60005b83811015611c82578082015181840152602081019050611c67565b60008484015250505050565b6000601f19601f8301169050919050565b6000611caa82611c48565b611cb48185611c53565b9350611cc4818560208601611c64565b611ccd81611c8e565b840191505092915050565b60006020820190508181036000830152611cf28184611c9f565b905092915050565b6000819050919050565b611d0d81611cfa565b8114611d1857600080fd5b50565b600081359050611d2a81611d04565b92915050565b600060208284031215611d4657611d45611b83565b5b6000611d5484828501611d1b565b91505092915050565b600073ffffffffffffffffffffffffffffffffffffffff82169050919050565b6000611d8882611d5d565b9050919050565b611d9881611d7d565b82525050565b6000602082019050611db36000830184611d8f565b92915050565b611dc281611d7d565b8114611dcd57600080fd5b50565b600081359050611ddf81611db9565b92915050565b60008060408385031215611dfc57611dfb611b83565b5b6000611e0a85828601611dd0565b9250506020611e1b85828601611d1b565b9150509250929050565b600080600060608486031215611e3e57611e3d611b83565b5b6000611e4c86828701611dd0565b9350506020611e5d86828701611dd0565b9250506040611e6e86828701611d1b565b9150509250925092565b600080fd5b600080fd5b7f4e487b7100000000000000000000000000000000000000000000000000000000600052604160045260246000fd5b611eba82611c8e565b810181811067ffffffffffffffff82111715611ed957611ed8611e82565b5b80604052505050565b6000611eec611b79565b9050611ef88282611eb1565b919050565b600067ffffffffffffffff821115611f1857611f17611e82565b5b611f2182611c8e565b9050602081019050919050565b82818337600083830152505050565b6000611f50611f4b84611efd565b611ee2565b905082815260208101848484011115611f6c57611f6b611e7d565b5b611f77848285611f2e565b509392505050565b600082601f830112611f9457611f93611e78565b5b8135611fa4848260208601611f3d565b91505092915050565b600067ffffffffffffffff821115611fc857611fc7611e82565b5b611fd182611c8e565b9050602081019050919050565b6000611ff1611fec84611fad565b611ee2565b90508281526020810184848401111561200d5761200c611e7d565b5b612018848285611f2e565b509392505050565b600082601f83011261203557612034611e78565b5b8135612045848260208601611fde565b91505092915050565b600080600080600080600080610100898b03121561206f5761206e611b83565b5b600061207d8b828c01611d1b565b985050602061208e8b828c01611d1b565b975050604089013567ffffffffffffffff8111156120af576120ae611b88565b5b6120bb8b828c01611f7f565b965050606089013567ffffffffffffffff8111156120dc576120db611b88565b5b6120e88b828c01611f7f565b955050608089013567ffffffffffffffff81111561210957612108611b88565b5b6121158b828c01611f7f565b94505060a06121268b828c01611d1b565b93505060c06121378b828c01611d1b565b92505060e089013567ffffffffffffffff81111561215857612157611b88565b5b6121648b828c01612020565b9150509295985092959890939650565b60006020828403121561218a57612189611b83565b5b600061219884828501611dd0565b91505092915050565b6121aa81611cfa565b82525050565b60006020820190506121c560008301846121a1565b92915050565b6121d481611c12565b81146121df57600080fd5b50565b6000813590506121f1816121cb565b92915050565b6000806040838503121561220e5761220d611b83565b5b600061221c85828601611dd0565b925050602061222d858286016121e2565b9150509250929050565b6000806000806080858703121561225157612250611b83565b5b600061225f87828801611dd0565b945050602061227087828801611dd0565b935050604061228187828801611d1b565b925050606085013567ffffffffffffffff8111156122a2576122a1611b88565b5b6122ae87828801612020565b91505092959194509250565b600080604083850312156122d1576122d0611b83565b5b60006122df85828601611dd0565b92505060206122f085828601611dd0565b9150509250929050565b600082825260208201905092915050565b600061231682611c48565b61232081856122fa565b9350612330818560208601611c64565b61233981611c8e565b840191505092915050565b61234d81611cfa565b82525050565b61235c81611c12565b82525050565b600081519050919050565b600082825260208201905092915050565b600061238982612362565b612393818561236d565b93506123a3818560208601611c64565b6123ac81611c8e565b840191505092915050565b60006101208301600083015184820360008601526123d5828261230b565b915050602083015184820360208601526123ef828261230b565b91505060408301518482036040860152612409828261230b565b915050606083015161241e6060860182612344565b5060808301516124316080860182612344565b5060a083015161244460a0860182612344565b5060c083015161245760c0860182612344565b5060e083015161246a60e0860182612353565b50610100830151848203610100860152612484828261237e565b9150508091505092915050565b600060208201905081810360008301526124ab81846123b7565b905092915050565b7f4e487b7100000000000000000000000000000000000000000000000000000000600052602260045260246000fd5b600060028204905060018216806124fa57607f821691505b60208210810361250d5761250c6124b3565b5b50919050565b7f4552433732313a20617070726f76616c20746f2063757272656e74206f776e6560008201527f7200000000000000000000000000000000000000000000000000000000000000602082015250565b600061256f602183611c53565b915061257a82612513565b604082019050919050565b6000602082019050818103600083015261259e81612562565b9050919050565b7f4552433732313a20617070726f76652063616c6c6572206973206e6f7420746f60008201527f6b656e206f776e6572206f7220617070726f76656420666f7220616c6c000000602082015250565b6000612601603d83611c53565b915061260c826125a5565b604082019050919050565b60006020820190508181036000830152612630816125f4565b9050919050565b7f4552433732313a2063616c6c6572206973206e6f7420746f6b656e206f776e6560008201527f72206f7220617070726f76656400000000000000000000000000000000000000602082015250565b6000612693602d83611c53565b915061269e82612637565b604082019050919050565b600060208201905081810360008301526126c281612686565b9050919050565b60008190508160005260206000209050919050565b60006020601f8301049050919050565b600082821b905092915050565b60006008830261272b7fffffffffffffffffffffffffffffffffffffffffffffffffffffffffffffffff826126ee565b61273586836126ee565b95508019841693508086168417925050509392505050565b6000819050919050565b600061277261276d61276884611cfa565b61274d565b611cfa565b9050919050565b6000819050919050565b61278c83612757565b6127a061279882612779565b8484546126fb565b825550505050565b600090565b6127b56127a8565b6127c0818484612783565b505050565b5b818110156127e4576127d96000826127ad565b6001810190506127c6565b5050565b601f821115612829576127fa816126c9565b612803846126de565b81016020851015612812578190505b61282661281e856126de565b8301826127c5565b50505b505050565b600082821c905092915050565b600061284c6000198460080261282e565b1980831691505092915050565b6000612865838361283b565b9150826002028217905092915050565b61287e82611c48565b67ffffffffffffffff81111561289757612896611e82565b5b6128a182546124e2565b6128ac8282856127e8565b600060209050601f8311600181146128df57600084156128cd578287015190505b6128d78582612859565b86555061293f565b601f1984166128ed866126c9565b60005b82811015612915578489015182556001820191506020850194506020810190506128f0565b86831015612932578489015161292e601f89168261283b565b8355505b6001600288020188555050505b505050505050565b60008190508160005260206000209050919050565b601f82111561299d5761296e81612947565b612977846126de565b81016020851015612986578190505b61299a612992856126de565b8301826127c5565b50505b505050565b6129ab82612362565b67ffffffffffffffff8111156129c4576129c3611e82565b5b6129ce82546124e2565b6129d982828561295c565b600060209050601f831160018114612a0c57600084156129fa578287015190505b612a048582612859565b865550612a6c565b601f198416612a1a86612947565b60005b82811015612a4257848901518255600182019150602085019450602081019050612a1d565b86831015612a5f5784890151612a5b601f89168261283b565b8355505b6001600288020188555050505b505050505050565b7f4e487b7100000000000000000000000000000000000000000000000000000000600052601160045260246000fd5b6000612aae82611cfa565b9150612ab983611cfa565b9250828201905080821115612ad157612ad0612a74565b5b92915050565b7f4552433732313a20696e76616c696420746f6b656e2049440000000000000000600082015250565b6000612b0d601883611c53565b9150612b1882612ad7565b602082019050919050565b60006020820190508181036000830152612b3c81612b00565b9050919050565b7f4552433732313a2061646472657373207a65726f206973206e6f74206120766160008201527f6c6964206f776e65720000000000000000000000000000000000000000000000602082015250565b6000612b9f602983611c53565b9150612baa82612b43565b604082019050919050565b60006020820190508181036000830152612bce81612b92565b9050919050565b600081905092915050565b6000612beb82611c48565b612bf58185612bd5565b9350612c05818560208601611c64565b80840191505092915050565b6000612c1d8285612be0565b9150612c298284612be0565b91508190509392505050565b7f4552433732313a207472616e736665722066726f6d20696e636f72726563742060008201527f6f776e6572000000000000000000000000000000000000000000000000000000602082015250565b6000612c91602583611c53565b9150612c9c82612c35565b604082019050919050565b60006020820190508181036000830152612cc081612c84565b9050919050565b7f4552433732313a207472616e7366657220746f20746865207a65726f2061646460008201527f7265737300000000000000000000000000000000000000000000000000000000602082015250565b6000612d23602483611c53565b9150612d2e82612cc7565b604082019050919050565b60006020820190508181036000830152612d5281612d16565b9050919050565b7f4552433732313a206d696e7420746f20746865207a65726f2061646472657373600082015250565b6000612d8f602083611c53565b9150612d9a82612d59565b602082019050919050565b60006020820190508181036000830152612dbe81612d82565b9050919050565b7f4552433732313a20746f6b656e20616c7265616479206d696e74656400000000600082015250565b6000612dfb601c83611c53565b9150612e0682612dc5565b602082019050919050565b60006020820190508181036000830152612e2a81612dee565b9050919050565b7f4552433732313a20617070726f766520746f2063616c6c657200000000000000600082015250565b6000612e67601983611c53565b9150612e7282612e31565b602082019050919050565b60006020820190508181036000830152612e9681612e5a565b9050919050565b7f4552433732313a207472616e7366657220746f206e6f6e20455243373231526560008201527f63656976657220696d706c656d656e7465720000000000000000000000000000602082015250565b6000612ef9603283611c53565b9150612f0482612e9d565b604082019050919050565b60006020820190508181036000830152612f2881612eec565b9050919050565b7f4e487b7100000000000000000000000000000000000000000000000000000000600052601260045260246000fd5b600082825260208201905092915050565b6000612f7a82612362565b612f848185612f5e565b9350612f94818560208601611c64565b612f9d81611c8e565b840191505092915050565b6000608082019050612fbd6000830187611d8f565b612fca6020830186611d8f565b612fd760408301856121a1565b8181036060830152612fe98184612f6f565b905095945050505050565b60008151905061300381611bb9565b92915050565b60006020828403121561301f5761301e611b83565b5b600061302d84828501612ff4565b9150509291505056fea2646970667358221220f111ec8f76f732d26d25df85ac19d3f6f0ae004d6a27813bdd73b212a4d9e07964736f6c63430008130033",
  "immutableReferences": {},
  "source": "// SPDX-License-Identifier: MIT\r\npragma solidity >=0.8.2 <0.9.0;\r\n\r\nimport \"@openzeppelin/contracts/token/ERC721/ERC721.sol\";\r\n\r\ncontract LandRegistration is ERC721 {\r\n    constructor() ERC721(\"Land\", \"LND\") {}\r\n\r\n    struct LandDetail {\r\n        string province;\r\n        string district;\r\n        string village;\r\n        uint blockNo;\r\n        uint surveyNo;\r\n        uint landValue; // in wei\r\n        uint area;\r\n        bool salesStatus;\r\n        bytes documentHash;\r\n    }\r\n\r\n    mapping(uint => LandDetail) landDetails;\r\n\r\n    uint public registeredLandCount = 0;\r\n\r\n    bool salesStatus;\r\n\r\n    function registerNewLand(\r\n        uint surveyNo,\r\n        uint blockNo,\r\n        string memory province,\r\n        string memory district,\r\n        string memory village,\r\n        uint landValue,\r\n        uint area,\r\n        bytes memory documentHash\r\n    ) public {\r\n        landDetails[registeredLandCount] = LandDetail(\r\n            province,\r\n            district,\r\n            village,\r\n            surveyNo,\r\n            blockNo,\r\n            landValue,\r\n            area,\r\n            false,\r\n            documentHash\r\n        );\r\n        _mint(msg.sender, registeredLandCount);\r\n        registeredLandCount += 1;\r\n    }\r\n\r\n    function getLandDetails(\r\n        uint landID\r\n    ) public view returns (LandDetail memory) {\r\n        return landDetails[landID];\r\n    }\r\n}\r\n",
  "sourcePath": "D:\\KBA\\land-marketplace-dapp\\contracts\\Land.sol",
  "compiler": {
    "name": "solc",
    "version": "0.8.19+commit.7dd6d404.Emscripten.clang"
  },
  "schemaVersion": "3.4.13",
  "updatedAt": "2023-05-16T01:53:06.731Z",
  "devdoc": {
    "events": {
      "Approval(address,address,uint256)": {
        "details": "Emitted when `owner` enables `approved` to manage the `tokenId` token."
      },
      "ApprovalForAll(address,address,bool)": {
        "details": "Emitted when `owner` enables or disables (`approved`) `operator` to manage all of its assets."
      },
      "Transfer(address,address,uint256)": {
        "details": "Emitted when `tokenId` token is transferred from `from` to `to`."
      }
    },
    "kind": "dev",
    "methods": {
      "approve(address,uint256)": {
        "details": "See {IERC721-approve}."
      },
      "balanceOf(address)": {
        "details": "See {IERC721-balanceOf}."
      },
      "getApproved(uint256)": {
        "details": "See {IERC721-getApproved}."
      },
      "isApprovedForAll(address,address)": {
        "details": "See {IERC721-isApprovedForAll}."
      },
      "name()": {
        "details": "See {IERC721Metadata-name}."
      },
      "ownerOf(uint256)": {
        "details": "See {IERC721-ownerOf}."
      },
      "safeTransferFrom(address,address,uint256)": {
        "details": "See {IERC721-safeTransferFrom}."
      },
      "safeTransferFrom(address,address,uint256,bytes)": {
        "details": "See {IERC721-safeTransferFrom}."
      },
      "setApprovalForAll(address,bool)": {
        "details": "See {IERC721-setApprovalForAll}."
      },
      "supportsInterface(bytes4)": {
        "details": "See {IERC165-supportsInterface}."
      },
      "symbol()": {
        "details": "See {IERC721Metadata-symbol}."
      },
      "tokenURI(uint256)": {
        "details": "See {IERC721Metadata-tokenURI}."
      },
      "transferFrom(address,address,uint256)": {
        "details": "See {IERC721-transferFrom}."
      }
    },
    "version": 1
  },
  "userdoc": {
    "kind": "user",
    "methods": {},
    "version": 1
  }
}