{
  "contractName": "LandSale",
  "abi": [
    {
      "anonymous": false,
      "inputs": [
        {
          "indexed": true,
          "internalType": "address",
          "name": "owner",
          "type": "address"
        },
        {
          "indexed": true,
          "internalType": "address",
          "name": "approved",
          "type": "address"
        },
        {
          "indexed": true,
          "internalType": "uint256",
          "name": "tokenId",
          "type": "uint256"
        }
      ],
      "name": "Approval",
      "type": "event"
    },
    {
      "anonymous": false,
      "inputs": [
        {
          "indexed": true,
          "internalType": "address",
          "name": "owner",
          "type": "address"
        },
        {
          "indexed": true,
          "internalType": "address",
          "name": "operator",
          "type": "address"
        },
        {
          "indexed": false,
          "internalType": "bool",
          "name": "approved",
          "type": "bool"
        }
      ],
      "name": "ApprovalForAll",
      "type": "event"
    },
    {
      "anonymous": false,
      "inputs": [
        {
          "indexed": true,
          "internalType": "address",
          "name": "from",
          "type": "address"
        },
        {
          "indexed": true,
          "internalType": "address",
          "name": "to",
          "type": "address"
        },
        {
          "indexed": true,
          "internalType": "uint256",
          "name": "tokenId",
          "type": "uint256"
        }
      ],
      "name": "Transfer",
      "type": "event"
    },
    {
      "stateMutability": "nonpayable",
      "type": "fallback"
    },
    {
      "inputs": [
        {
          "internalType": "address",
          "name": "to",
          "type": "address"
        },
        {
          "internalType": "uint256",
          "name": "tokenId",
          "type": "uint256"
        }
      ],
      "name": "approve",
      "outputs": [],
      "stateMutability": "nonpayable",
      "type": "function"
    },
    {
      "inputs": [
        {
          "internalType": "address",
          "name": "owner",
          "type": "address"
        }
      ],
      "name": "balanceOf",
      "outputs": [
        {
          "internalType": "uint256",
          "name": "",
          "type": "uint256"
        }
      ],
      "stateMutability": "view",
      "type": "function"
    },
    {
      "inputs": [
        {
          "internalType": "uint256",
          "name": "tokenId",
          "type": "uint256"
        }
      ],
      "name": "getApproved",
      "outputs": [
        {
          "internalType": "address",
          "name": "",
          "type": "address"
        }
      ],
      "stateMutability": "view",
      "type": "function"
    },
    {
      "inputs": [
        {
          "internalType": "uint256",
          "name": "landID",
          "type": "uint256"
        }
      ],
      "name": "getLandDetails",
      "outputs": [
        {
          "components": [
            {
              "internalType": "string",
              "name": "province",
              "type": "string"
            },
            {
              "internalType": "string",
              "name": "district",
              "type": "string"
            },
            {
              "internalType": "string",
              "name": "village",
              "type": "string"
            },
            {
              "internalType": "uint256",
              "name": "blockNo",
              "type": "uint256"
            },
            {
              "internalType": "uint256",
              "name": "surveyNo",
              "type": "uint256"
            },
            {
              "internalType": "uint256",
              "name": "landValue",
              "type": "uint256"
            },
            {
              "internalType": "uint256",
              "name": "area",
              "type": "uint256"
            },
            {
              "internalType": "bool",
              "name": "salesStatus",
              "type": "bool"
            }
          ],
          "internalType": "struct LandRegistration.LandDetail",
          "name": "",
          "type": "tuple"
        }
      ],
      "stateMutability": "view",
      "type": "function"
    },
    {
      "inputs": [
        {
          "internalType": "address",
          "name": "owner",
          "type": "address"
        },
        {
          "internalType": "address",
          "name": "operator",
          "type": "address"
        }
      ],
      "name": "isApprovedForAll",
      "outputs": [
        {
          "internalType": "bool",
          "name": "",
          "type": "bool"
        }
      ],
      "stateMutability": "view",
      "type": "function"
    },
    {
      "inputs": [],
      "name": "name",
      "outputs": [
        {
          "internalType": "string",
          "name": "",
          "type": "string"
        }
      ],
      "stateMutability": "view",
      "type": "function"
    },
    {
      "inputs": [
        {
          "internalType": "uint256",
          "name": "tokenId",
          "type": "uint256"
        }
      ],
      "name": "ownerOf",
      "outputs": [
        {
          "internalType": "address",
          "name": "",
          "type": "address"
        }
      ],
      "stateMutability": "view",
      "type": "function"
    },
    {
      "inputs": [
        {
          "internalType": "uint256",
          "name": "surveyNo",
          "type": "uint256"
        },
        {
          "internalType": "uint256",
          "name": "blockNo",
          "type": "uint256"
        },
        {
          "internalType": "string",
          "name": "province",
          "type": "string"
        },
        {
          "internalType": "string",
          "name": "district",
          "type": "string"
        },
        {
          "internalType": "string",
          "name": "village",
          "type": "string"
        },
        {
          "internalType": "uint256",
          "name": "landValue",
          "type": "uint256"
        },
        {
          "internalType": "uint256",
          "name": "area",
          "type": "uint256"
        }
      ],
      "name": "registerNewLand",
      "outputs": [],
      "stateMutability": "nonpayable",
      "type": "function"
    },
    {
      "inputs": [],
      "name": "registeredLandCount",
      "outputs": [
        {
          "internalType": "uint256",
          "name": "",
          "type": "uint256"
        }
      ],
      "stateMutability": "view",
      "type": "function"
    },
    {
      "inputs": [
        {
          "internalType": "address",
          "name": "from",
          "type": "address"
        },
        {
          "internalType": "address",
          "name": "to",
          "type": "address"
        },
        {
          "internalType": "uint256",
          "name": "tokenId",
          "type": "uint256"
        }
      ],
      "name": "safeTransferFrom",
      "outputs": [],
      "stateMutability": "nonpayable",
      "type": "function"
    },
    {
      "inputs": [
        {
          "internalType": "address",
          "name": "from",
          "type": "address"
        },
        {
          "internalType": "address",
          "name": "to",
          "type": "address"
        },
        {
          "internalType": "uint256",
          "name": "tokenId",
          "type": "uint256"
        },
        {
          "internalType": "bytes",
          "name": "data",
          "type": "bytes"
        }
      ],
      "name": "safeTransferFrom",
      "outputs": [],
      "stateMutability": "nonpayable",
      "type": "function"
    },
    {
      "inputs": [
        {
          "internalType": "address",
          "name": "operator",
          "type": "address"
        },
        {
          "internalType": "bool",
          "name": "approved",
          "type": "bool"
        }
      ],
      "name": "setApprovalForAll",
      "outputs": [],
      "stateMutability": "nonpayable",
      "type": "function"
    },
    {
      "inputs": [
        {
          "internalType": "bytes4",
          "name": "interfaceId",
          "type": "bytes4"
        }
      ],
      "name": "supportsInterface",
      "outputs": [
        {
          "internalType": "bool",
          "name": "",
          "type": "bool"
        }
      ],
      "stateMutability": "view",
      "type": "function"
    },
    {
      "inputs": [],
      "name": "symbol",
      "outputs": [
        {
          "internalType": "string",
          "name": "",
          "type": "string"
        }
      ],
      "stateMutability": "view",
      "type": "function"
    },
    {
      "inputs": [
        {
          "internalType": "uint256",
          "name": "tokenId",
          "type": "uint256"
        }
      ],
      "name": "tokenURI",
      "outputs": [
        {
          "internalType": "string",
          "name": "",
          "type": "string"
        }
      ],
      "stateMutability": "view",
      "type": "function"
    },
    {
      "inputs": [
        {
          "internalType": "address",
          "name": "from",
          "type": "address"
        },
        {
          "internalType": "address",
          "name": "to",
          "type": "address"
        },
        {
          "internalType": "uint256",
          "name": "tokenId",
          "type": "uint256"
        }
      ],
      "name": "transferFrom",
      "outputs": [],
      "stateMutability": "nonpayable",
      "type": "function"
    },
    {
      "inputs": [
        {
          "internalType": "uint256",
          "name": "landID",
          "type": "uint256"
        }
      ],
      "name": "bid",
      "outputs": [],
      "stateMutability": "payable",
      "type": "function"
    },
    {
      "inputs": [
        {
          "internalType": "uint256",
          "name": "landID",
          "type": "uint256"
        }
      ],
      "name": "acceptBid",
      "outputs": [],
      "stateMutability": "nonpayable",
      "type": "function"
    }
  ],
  "bytecode": "0x608060405260006007553480156200001657600080fd5b506040518060400160405280600481526020017f4c616e64000000000000000000000000000000000000000000000000000000008152506040518060400160405280600381526020017f4c4e440000000000000000000000000000000000000000000000000000000000815250816000908162000094919062000329565b508060019081620000a6919062000329565b50505062000410565b600081519050919050565b7f4e487b7100000000000000000000000000000000000000000000000000000000600052604160045260246000fd5b7f4e487b7100000000000000000000000000000000000000000000000000000000600052602260045260246000fd5b600060028204905060018216806200013157607f821691505b602082108103620001475762000146620000e9565b5b50919050565b60008190508160005260206000209050919050565b60006020601f8301049050919050565b600082821b905092915050565b600060088302620001b17fffffffffffffffffffffffffffffffffffffffffffffffffffffffffffffffff8262000172565b620001bd868362000172565b95508019841693508086168417925050509392505050565b6000819050919050565b6000819050919050565b60006200020a62000204620001fe84620001d5565b620001df565b620001d5565b9050919050565b6000819050919050565b6200022683620001e9565b6200023e620002358262000211565b8484546200017f565b825550505050565b600090565b6200025562000246565b620002628184846200021b565b505050565b5b818110156200028a576200027e6000826200024b565b60018101905062000268565b5050565b601f821115620002d957620002a3816200014d565b620002ae8462000162565b81016020851015620002be578190505b620002d6620002cd8562000162565b83018262000267565b50505b505050565b600082821c905092915050565b6000620002fe60001984600802620002de565b1980831691505092915050565b6000620003198383620002eb565b9150826002028217905092915050565b6200033482620000af565b67ffffffffffffffff81111562000350576200034f620000ba565b5b6200035c825462000118565b620003698282856200028e565b600060209050601f831160018114620003a157600084156200038c578287015190505b6200039885826200030b565b86555062000408565b601f198416620003b1866200014d565b60005b82811015620003db57848901518255600182019150602085019450602081019050620003b4565b86831015620003fb5784890151620003f7601f891682620002eb565b8355505b6001600288020188555050505b505050505050565b6135af80620004206000396000f3fe60806040526004361061010d5760003560e01c806370a0823111610095578063b88d4fde11610064578063b88d4fde1461037d578063c87b56dd146103a6578063e6fdc4a1146103e3578063e985e9c51461040c578063fe0cb7dc146104495761010e565b806370a08231146102c157806395d89b41146102fe578063a22cb46514610329578063a7613a7d146103525761010e565b806323b872dd116100dc57806323b872dd146101ed5780632b1fd58a1461021657806342842e0e1461023f578063454a2ab3146102685780636352211e146102845761010e565b806301ffc9a71461011f57806306fdde031461015c578063081812fc14610187578063095ea7b3146101c45761010e565b5b34801561011a57600080fd5b600080fd5b34801561012b57600080fd5b5061014660048036038101906101419190612208565b610486565b6040516101539190612250565b60405180910390f35b34801561016857600080fd5b50610171610568565b60405161017e91906122fb565b60405180910390f35b34801561019357600080fd5b506101ae60048036038101906101a99190612353565b6105fa565b6040516101bb91906123c1565b60405180910390f35b3480156101d057600080fd5b506101eb60048036038101906101e69190612408565b610640565b005b3480156101f957600080fd5b50610214600480360381019061020f9190612448565b610757565b005b34801561022257600080fd5b5061023d60048036038101906102389190612353565b6107b7565b005b34801561024b57600080fd5b5061026660048036038101906102619190612448565b610aba565b005b610282600480360381019061027d9190612353565b610ada565b005b34801561029057600080fd5b506102ab60048036038101906102a69190612353565b610d82565b6040516102b891906123c1565b60405180910390f35b3480156102cd57600080fd5b506102e860048036038101906102e3919061249b565b610e08565b6040516102f591906124d7565b60405180910390f35b34801561030a57600080fd5b50610313610ebf565b60405161032091906122fb565b60405180910390f35b34801561033557600080fd5b50610350600480360381019061034b919061251e565b610f51565b005b34801561035e57600080fd5b50610367610f67565b60405161037491906124d7565b60405180910390f35b34801561038957600080fd5b506103a4600480360381019061039f9190612693565b610f6d565b005b3480156103b257600080fd5b506103cd60048036038101906103c89190612353565b610fcf565b6040516103da91906122fb565b60405180910390f35b3480156103ef57600080fd5b5061040a600480360381019061040591906127b7565b611037565b005b34801561041857600080fd5b50610433600480360381019061042e91906128ad565b611145565b6040516104409190612250565b60405180910390f35b34801561045557600080fd5b50610470600480360381019061046b9190612353565b6111d9565b60405161047d9190612a13565b60405180910390f35b60007f80ac58cd000000000000000000000000000000000000000000000000000000007bffffffffffffffffffffffffffffffffffffffffffffffffffffffff1916827bffffffffffffffffffffffffffffffffffffffffffffffffffffffff1916148061055157507f5b5e139f000000000000000000000000000000000000000000000000000000007bffffffffffffffffffffffffffffffffffffffffffffffffffffffff1916827bffffffffffffffffffffffffffffffffffffffffffffffffffffffff1916145b80610561575061056082611400565b5b9050919050565b60606000805461057790612a64565b80601f01602080910402602001604051908101604052809291908181526020018280546105a390612a64565b80156105f05780601f106105c5576101008083540402835291602001916105f0565b820191906000526020600020905b8154815290600101906020018083116105d357829003601f168201915b5050505050905090565b60006106058261146a565b6004600083815260200190815260200160002060009054906101000a900473ffffffffffffffffffffffffffffffffffffffff169050919050565b600061064b82610d82565b90508073ffffffffffffffffffffffffffffffffffffffff168373ffffffffffffffffffffffffffffffffffffffff16036106bb576040517f08c379a00000000000000000000000000000000000000000000000000000000081526004016106b290612b07565b60405180910390fd5b8073ffffffffffffffffffffffffffffffffffffffff166106da6114b5565b73ffffffffffffffffffffffffffffffffffffffff1614806107095750610708816107036114b5565b611145565b5b610748576040517f08c379a000000000000000000000000000000000000000000000000000000000815260040161073f90612b99565b60405180910390fd5b61075283836114bd565b505050565b6107686107626114b5565b82611576565b6107a7576040517f08c379a000000000000000000000000000000000000000000000000000000000815260040161079e90612c2b565b60405180910390fd5b6107b283838361160b565b505050565b3373ffffffffffffffffffffffffffffffffffffffff166108fc60096000848152602001908152602001600020600001549081150290604051600060405180830381858888f19350505050158015610813573d6000803e3d6000fd5b50610855336009600084815260200190815260200160002060010160009054906101000a900473ffffffffffffffffffffffffffffffffffffffff1683610aba565b60005b6009600083815260200190815260200160002060030180549050811015610a87576009600083815260200190815260200160002060010160009054906101000a900473ffffffffffffffffffffffffffffffffffffffff1673ffffffffffffffffffffffffffffffffffffffff166009600084815260200190815260200160002060030182815481106108ee576108ed612c4b565b5b9060005260206000200160009054906101000a900473ffffffffffffffffffffffffffffffffffffffff1673ffffffffffffffffffffffffffffffffffffffff160315610a745760096000838152602001908152602001600020600301818154811061095d5761095c612c4b565b5b9060005260206000200160009054906101000a900473ffffffffffffffffffffffffffffffffffffffff1673ffffffffffffffffffffffffffffffffffffffff166108fc6009600085815260200190815260200160002060020160006009600087815260200190815260200160002060030185815481106109e1576109e0612c4b565b5b9060005260206000200160009054906101000a900473ffffffffffffffffffffffffffffffffffffffff1673ffffffffffffffffffffffffffffffffffffffff1673ffffffffffffffffffffffffffffffffffffffff168152602001908152602001600020549081150290604051600060405180830381858888f19350505050158015610a72573d6000803e3d6000fd5b505b8080610a7f90612ca9565b915050610858565b5060016006600083815260200190815260200160002060070160006101000a81548160ff02191690831515021790555050565b610ad583838360405180602001604052806000815250610f6d565b505050565b610ae381610d82565b73ffffffffffffffffffffffffffffffffffffffff163373ffffffffffffffffffffffffffffffffffffffff1603610b1a57600080fd5b6009600082815260200190815260200160002060000154346009600084815260200190815260200160002060020160003373ffffffffffffffffffffffffffffffffffffffff1673ffffffffffffffffffffffffffffffffffffffff16815260200190815260200160002054610b909190612cf1565b11610bd0576040517f08c379a0000000000000000000000000000000000000000000000000000000008152600401610bc790612d71565b60405180910390fd5b336009600083815260200190815260200160002060010160006101000a81548173ffffffffffffffffffffffffffffffffffffffff021916908373ffffffffffffffffffffffffffffffffffffffff16021790555060096000828152602001908152602001600020600301339080600181540180825580915050600190039060005260206000200160009091909190916101000a81548173ffffffffffffffffffffffffffffffffffffffff021916908373ffffffffffffffffffffffffffffffffffffffff160217905550346009600083815260200190815260200160002060020160003373ffffffffffffffffffffffffffffffffffffffff1673ffffffffffffffffffffffffffffffffffffffff16815260200190815260200160002054610cfb9190612cf1565b6009600083815260200190815260200160002060000181905550346009600083815260200190815260200160002060020160003373ffffffffffffffffffffffffffffffffffffffff1673ffffffffffffffffffffffffffffffffffffffff1681526020019081526020016000206000828254610d789190612cf1565b9250508190555050565b600080610d8e83611904565b9050600073ffffffffffffffffffffffffffffffffffffffff168173ffffffffffffffffffffffffffffffffffffffff1603610dff576040517f08c379a0000000000000000000000000000000000000000000000000000000008152600401610df690612ddd565b60405180910390fd5b80915050919050565b60008073ffffffffffffffffffffffffffffffffffffffff168273ffffffffffffffffffffffffffffffffffffffff1603610e78576040517f08c379a0000000000000000000000000000000000000000000000000000000008152600401610e6f90612e6f565b60405180910390fd5b600360008373ffffffffffffffffffffffffffffffffffffffff1673ffffffffffffffffffffffffffffffffffffffff168152602001908152602001600020549050919050565b606060018054610ece90612a64565b80601f0160208091040260200160405190810160405280929190818152602001828054610efa90612a64565b8015610f475780601f10610f1c57610100808354040283529160200191610f47565b820191906000526020600020905b815481529060010190602001808311610f2a57829003601f168201915b5050505050905090565b610f63610f5c6114b5565b8383611941565b5050565b60075481565b610f7e610f786114b5565b83611576565b610fbd576040517f08c379a0000000000000000000000000000000000000000000000000000000008152600401610fb490612c2b565b60405180910390fd5b610fc984848484611aad565b50505050565b6060610fda8261146a565b6000610fe4611b09565b90506000815111611004576040518060200160405280600081525061102f565b8061100e84611b20565b60405160200161101f929190612ecb565b6040516020818303038152906040525b915050919050565b60405180610100016040528086815260200185815260200184815260200188815260200187815260200183815260200182815260200160001515815250600660006007548152602001908152602001600020600082015181600001908161109e919061309b565b5060208201518160010190816110b4919061309b565b5060408201518160020190816110ca919061309b565b50606082015181600301556080820151816004015560a0820151816005015560c0820151816006015560e08201518160070160006101000a81548160ff02191690831515021790555090505061112233600754611bee565b6001600760008282546111359190612cf1565b9250508190555050505050505050565b6000600560008473ffffffffffffffffffffffffffffffffffffffff1673ffffffffffffffffffffffffffffffffffffffff16815260200190815260200160002060008373ffffffffffffffffffffffffffffffffffffffff1673ffffffffffffffffffffffffffffffffffffffff16815260200190815260200160002060009054906101000a900460ff16905092915050565b6111e1612155565b600660008381526020019081526020016000206040518061010001604052908160008201805461121090612a64565b80601f016020809104026020016040519081016040528092919081815260200182805461123c90612a64565b80156112895780601f1061125e57610100808354040283529160200191611289565b820191906000526020600020905b81548152906001019060200180831161126c57829003601f168201915b505050505081526020016001820180546112a290612a64565b80601f01602080910402602001604051908101604052809291908181526020018280546112ce90612a64565b801561131b5780601f106112f05761010080835404028352916020019161131b565b820191906000526020600020905b8154815290600101906020018083116112fe57829003601f168201915b5050505050815260200160028201805461133490612a64565b80601f016020809104026020016040519081016040528092919081815260200182805461136090612a64565b80156113ad5780601f10611382576101008083540402835291602001916113ad565b820191906000526020600020905b81548152906001019060200180831161139057829003601f168201915b50505050508152602001600382015481526020016004820154815260200160058201548152602001600682015481526020016007820160009054906101000a900460ff1615151515815250509050919050565b60007f01ffc9a7000000000000000000000000000000000000000000000000000000007bffffffffffffffffffffffffffffffffffffffffffffffffffffffff1916827bffffffffffffffffffffffffffffffffffffffffffffffffffffffff1916149050919050565b61147381611e0b565b6114b2576040517f08c379a00000000000000000000000000000000000000000000000000000000081526004016114a990612ddd565b60405180910390fd5b50565b600033905090565b816004600083815260200190815260200160002060006101000a81548173ffffffffffffffffffffffffffffffffffffffff021916908373ffffffffffffffffffffffffffffffffffffffff160217905550808273ffffffffffffffffffffffffffffffffffffffff1661153083610d82565b73ffffffffffffffffffffffffffffffffffffffff167f8c5be1e5ebec7d5bd14f71427d1e84f3dd0314c0f7b2291e5b200ac8c7c3b92560405160405180910390a45050565b60008061158283610d82565b90508073ffffffffffffffffffffffffffffffffffffffff168473ffffffffffffffffffffffffffffffffffffffff1614806115c457506115c38185611145565b5b8061160257508373ffffffffffffffffffffffffffffffffffffffff166115ea846105fa565b73ffffffffffffffffffffffffffffffffffffffff16145b91505092915050565b8273ffffffffffffffffffffffffffffffffffffffff1661162b82610d82565b73ffffffffffffffffffffffffffffffffffffffff1614611681576040517f08c379a0000000000000000000000000000000000000000000000000000000008152600401611678906131df565b60405180910390fd5b600073ffffffffffffffffffffffffffffffffffffffff168273ffffffffffffffffffffffffffffffffffffffff16036116f0576040517f08c379a00000000000000000000000000000000000000000000000000000000081526004016116e790613271565b60405180910390fd5b6116fd8383836001611e4c565b8273ffffffffffffffffffffffffffffffffffffffff1661171d82610d82565b73ffffffffffffffffffffffffffffffffffffffff1614611773576040517f08c379a000000000000000000000000000000000000000000000000000000000815260040161176a906131df565b60405180910390fd5b6004600082815260200190815260200160002060006101000a81549073ffffffffffffffffffffffffffffffffffffffff02191690556001600360008573ffffffffffffffffffffffffffffffffffffffff1673ffffffffffffffffffffffffffffffffffffffff168152602001908152602001600020600082825403925050819055506001600360008473ffffffffffffffffffffffffffffffffffffffff1673ffffffffffffffffffffffffffffffffffffffff16815260200190815260200160002060008282540192505081905550816002600083815260200190815260200160002060006101000a81548173ffffffffffffffffffffffffffffffffffffffff021916908373ffffffffffffffffffffffffffffffffffffffff160217905550808273ffffffffffffffffffffffffffffffffffffffff168473ffffffffffffffffffffffffffffffffffffffff167fddf252ad1be2c89b69c2b068fc378daa952ba7f163c4a11628f55a4df523b3ef60405160405180910390a46118ff8383836001611e52565b505050565b60006002600083815260200190815260200160002060009054906101000a900473ffffffffffffffffffffffffffffffffffffffff169050919050565b8173ffffffffffffffffffffffffffffffffffffffff168373ffffffffffffffffffffffffffffffffffffffff16036119af576040517f08c379a00000000000000000000000000000000000000000000000000000000081526004016119a6906132dd565b60405180910390fd5b80600560008573ffffffffffffffffffffffffffffffffffffffff1673ffffffffffffffffffffffffffffffffffffffff16815260200190815260200160002060008473ffffffffffffffffffffffffffffffffffffffff1673ffffffffffffffffffffffffffffffffffffffff16815260200190815260200160002060006101000a81548160ff0219169083151502179055508173ffffffffffffffffffffffffffffffffffffffff168373ffffffffffffffffffffffffffffffffffffffff167f17307eab39ab6107e8899845ad3d59bd9653f200f220920489ca2b5937696c3183604051611aa09190612250565b60405180910390a3505050565b611ab884848461160b565b611ac484848484611e58565b611b03576040517f08c379a0000000000000000000000000000000000000000000000000000000008152600401611afa9061336f565b60405180910390fd5b50505050565b606060405180602001604052806000815250905090565b606060006001611b2f84611fdf565b01905060008167ffffffffffffffff811115611b4e57611b4d612568565b5b6040519080825280601f01601f191660200182016040528015611b805781602001600182028036833780820191505090505b509050600082602001820190505b600115611be3578080600190039150507f3031323334353637383961626364656600000000000000000000000000000000600a86061a8153600a8581611bd757611bd661338f565b5b04945060008503611b8e575b819350505050919050565b600073ffffffffffffffffffffffffffffffffffffffff168273ffffffffffffffffffffffffffffffffffffffff1603611c5d576040517f08c379a0000000000000000000000000000000000000000000000000000000008152600401611c549061340a565b60405180910390fd5b611c6681611e0b565b15611ca6576040517f08c379a0000000000000000000000000000000000000000000000000000000008152600401611c9d90613476565b60405180910390fd5b611cb4600083836001611e4c565b611cbd81611e0b565b15611cfd576040517f08c379a0000000000000000000000000000000000000000000000000000000008152600401611cf490613476565b60405180910390fd5b6001600360008473ffffffffffffffffffffffffffffffffffffffff1673ffffffffffffffffffffffffffffffffffffffff16815260200190815260200160002060008282540192505081905550816002600083815260200190815260200160002060006101000a81548173ffffffffffffffffffffffffffffffffffffffff021916908373ffffffffffffffffffffffffffffffffffffffff160217905550808273ffffffffffffffffffffffffffffffffffffffff16600073ffffffffffffffffffffffffffffffffffffffff167fddf252ad1be2c89b69c2b068fc378daa952ba7f163c4a11628f55a4df523b3ef60405160405180910390a4611e07600083836001611e52565b5050565b60008073ffffffffffffffffffffffffffffffffffffffff16611e2d83611904565b73ffffffffffffffffffffffffffffffffffffffff1614159050919050565b50505050565b50505050565b6000611e798473ffffffffffffffffffffffffffffffffffffffff16612132565b15611fd2578373ffffffffffffffffffffffffffffffffffffffff1663150b7a02611ea26114b5565b8786866040518563ffffffff1660e01b8152600401611ec494939291906134eb565b6020604051808303816000875af1925050508015611f0057506040513d601f19601f82011682018060405250810190611efd919061354c565b60015b611f82573d8060008114611f30576040519150601f19603f3d011682016040523d82523d6000602084013e611f35565b606091505b506000815103611f7a576040517f08c379a0000000000000000000000000000000000000000000000000000000008152600401611f719061336f565b60405180910390fd5b805181602001fd5b63150b7a0260e01b7bffffffffffffffffffffffffffffffffffffffffffffffffffffffff1916817bffffffffffffffffffffffffffffffffffffffffffffffffffffffff191614915050611fd7565b600190505b949350505050565b600080600090507a184f03e93ff9f4daa797ed6e38ed64bf6a1f010000000000000000831061203d577a184f03e93ff9f4daa797ed6e38ed64bf6a1f01000000000000000083816120335761203261338f565b5b0492506040810190505b6d04ee2d6d415b85acef8100000000831061207a576d04ee2d6d415b85acef810000000083816120705761206f61338f565b5b0492506020810190505b662386f26fc1000083106120a957662386f26fc10000838161209f5761209e61338f565b5b0492506010810190505b6305f5e10083106120d2576305f5e10083816120c8576120c761338f565b5b0492506008810190505b61271083106120f75761271083816120ed576120ec61338f565b5b0492506004810190505b6064831061211a57606483816121105761210f61338f565b5b0492506002810190505b600a8310612129576001810190505b80915050919050565b6000808273ffffffffffffffffffffffffffffffffffffffff163b119050919050565b604051806101000160405280606081526020016060815260200160608152602001600081526020016000815260200160008152602001600081526020016000151581525090565b6000604051905090565b600080fd5b600080fd5b60007fffffffff0000000000000000000000000000000000000000000000000000000082169050919050565b6121e5816121b0565b81146121f057600080fd5b50565b600081359050612202816121dc565b92915050565b60006020828403121561221e5761221d6121a6565b5b600061222c848285016121f3565b91505092915050565b60008115159050919050565b61224a81612235565b82525050565b60006020820190506122656000830184612241565b92915050565b600081519050919050565b600082825260208201905092915050565b60005b838110156122a557808201518184015260208101905061228a565b60008484015250505050565b6000601f19601f8301169050919050565b60006122cd8261226b565b6122d78185612276565b93506122e7818560208601612287565b6122f0816122b1565b840191505092915050565b6000602082019050818103600083015261231581846122c2565b905092915050565b6000819050919050565b6123308161231d565b811461233b57600080fd5b50565b60008135905061234d81612327565b92915050565b600060208284031215612369576123686121a6565b5b60006123778482850161233e565b91505092915050565b600073ffffffffffffffffffffffffffffffffffffffff82169050919050565b60006123ab82612380565b9050919050565b6123bb816123a0565b82525050565b60006020820190506123d660008301846123b2565b92915050565b6123e5816123a0565b81146123f057600080fd5b50565b600081359050612402816123dc565b92915050565b6000806040838503121561241f5761241e6121a6565b5b600061242d858286016123f3565b925050602061243e8582860161233e565b9150509250929050565b600080600060608486031215612461576124606121a6565b5b600061246f868287016123f3565b9350506020612480868287016123f3565b92505060406124918682870161233e565b9150509250925092565b6000602082840312156124b1576124b06121a6565b5b60006124bf848285016123f3565b91505092915050565b6124d18161231d565b82525050565b60006020820190506124ec60008301846124c8565b92915050565b6124fb81612235565b811461250657600080fd5b50565b600081359050612518816124f2565b92915050565b60008060408385031215612535576125346121a6565b5b6000612543858286016123f3565b925050602061255485828601612509565b9150509250929050565b600080fd5b600080fd5b7f4e487b7100000000000000000000000000000000000000000000000000000000600052604160045260246000fd5b6125a0826122b1565b810181811067ffffffffffffffff821117156125bf576125be612568565b5b80604052505050565b60006125d261219c565b90506125de8282612597565b919050565b600067ffffffffffffffff8211156125fe576125fd612568565b5b612607826122b1565b9050602081019050919050565b82818337600083830152505050565b6000612636612631846125e3565b6125c8565b90508281526020810184848401111561265257612651612563565b5b61265d848285612614565b509392505050565b600082601f83011261267a5761267961255e565b5b813561268a848260208601612623565b91505092915050565b600080600080608085870312156126ad576126ac6121a6565b5b60006126bb878288016123f3565b94505060206126cc878288016123f3565b93505060406126dd8782880161233e565b925050606085013567ffffffffffffffff8111156126fe576126fd6121ab565b5b61270a87828801612665565b91505092959194509250565b600067ffffffffffffffff82111561273157612730612568565b5b61273a826122b1565b9050602081019050919050565b600061275a61275584612716565b6125c8565b90508281526020810184848401111561277657612775612563565b5b612781848285612614565b509392505050565b600082601f83011261279e5761279d61255e565b5b81356127ae848260208601612747565b91505092915050565b600080600080600080600060e0888a0312156127d6576127d56121a6565b5b60006127e48a828b0161233e565b97505060206127f58a828b0161233e565b965050604088013567ffffffffffffffff811115612816576128156121ab565b5b6128228a828b01612789565b955050606088013567ffffffffffffffff811115612843576128426121ab565b5b61284f8a828b01612789565b945050608088013567ffffffffffffffff8111156128705761286f6121ab565b5b61287c8a828b01612789565b93505060a061288d8a828b0161233e565b92505060c061289e8a828b0161233e565b91505092959891949750929550565b600080604083850312156128c4576128c36121a6565b5b60006128d2858286016123f3565b92505060206128e3858286016123f3565b9150509250929050565b600082825260208201905092915050565b60006129098261226b565b61291381856128ed565b9350612923818560208601612287565b61292c816122b1565b840191505092915050565b6129408161231d565b82525050565b61294f81612235565b82525050565b600061010083016000830151848203600086015261297382826128fe565b9150506020830151848203602086015261298d82826128fe565b915050604083015184820360408601526129a782826128fe565b91505060608301516129bc6060860182612937565b5060808301516129cf6080860182612937565b5060a08301516129e260a0860182612937565b5060c08301516129f560c0860182612937565b5060e0830151612a0860e0860182612946565b508091505092915050565b60006020820190508181036000830152612a2d8184612955565b905092915050565b7f4e487b7100000000000000000000000000000000000000000000000000000000600052602260045260246000fd5b60006002820490506001821680612a7c57607f821691505b602082108103612a8f57612a8e612a35565b5b50919050565b7f4552433732313a20617070726f76616c20746f2063757272656e74206f776e6560008201527f7200000000000000000000000000000000000000000000000000000000000000602082015250565b6000612af1602183612276565b9150612afc82612a95565b604082019050919050565b60006020820190508181036000830152612b2081612ae4565b9050919050565b7f4552433732313a20617070726f76652063616c6c6572206973206e6f7420746f60008201527f6b656e206f776e6572206f7220617070726f76656420666f7220616c6c000000602082015250565b6000612b83603d83612276565b9150612b8e82612b27565b604082019050919050565b60006020820190508181036000830152612bb281612b76565b9050919050565b7f4552433732313a2063616c6c6572206973206e6f7420746f6b656e206f776e6560008201527f72206f7220617070726f76656400000000000000000000000000000000000000602082015250565b6000612c15602d83612276565b9150612c2082612bb9565b604082019050919050565b60006020820190508181036000830152612c4481612c08565b9050919050565b7f4e487b7100000000000000000000000000000000000000000000000000000000600052603260045260246000fd5b7f4e487b7100000000000000000000000000000000000000000000000000000000600052601160045260246000fd5b6000612cb48261231d565b91507fffffffffffffffffffffffffffffffffffffffffffffffffffffffffffffffff8203612ce657612ce5612c7a565b5b600182019050919050565b6000612cfc8261231d565b9150612d078361231d565b9250828201905080821115612d1f57612d1e612c7a565b5b92915050565b7f63616e2774206269642c206d616b652061206869676865722042696400000000600082015250565b6000612d5b601c83612276565b9150612d6682612d25565b602082019050919050565b60006020820190508181036000830152612d8a81612d4e565b9050919050565b7f4552433732313a20696e76616c696420746f6b656e2049440000000000000000600082015250565b6000612dc7601883612276565b9150612dd282612d91565b602082019050919050565b60006020820190508181036000830152612df681612dba565b9050919050565b7f4552433732313a2061646472657373207a65726f206973206e6f74206120766160008201527f6c6964206f776e65720000000000000000000000000000000000000000000000602082015250565b6000612e59602983612276565b9150612e6482612dfd565b604082019050919050565b60006020820190508181036000830152612e8881612e4c565b9050919050565b600081905092915050565b6000612ea58261226b565b612eaf8185612e8f565b9350612ebf818560208601612287565b80840191505092915050565b6000612ed78285612e9a565b9150612ee38284612e9a565b91508190509392505050565b60008190508160005260206000209050919050565b60006020601f8301049050919050565b600082821b905092915050565b600060088302612f517fffffffffffffffffffffffffffffffffffffffffffffffffffffffffffffffff82612f14565b612f5b8683612f14565b95508019841693508086168417925050509392505050565b6000819050919050565b6000612f98612f93612f8e8461231d565b612f73565b61231d565b9050919050565b6000819050919050565b612fb283612f7d565b612fc6612fbe82612f9f565b848454612f21565b825550505050565b600090565b612fdb612fce565b612fe6818484612fa9565b505050565b5b8181101561300a57612fff600082612fd3565b600181019050612fec565b5050565b601f82111561304f5761302081612eef565b61302984612f04565b81016020851015613038578190505b61304c61304485612f04565b830182612feb565b50505b505050565b600082821c905092915050565b600061307260001984600802613054565b1980831691505092915050565b600061308b8383613061565b9150826002028217905092915050565b6130a48261226b565b67ffffffffffffffff8111156130bd576130bc612568565b5b6130c78254612a64565b6130d282828561300e565b600060209050601f83116001811461310557600084156130f3578287015190505b6130fd858261307f565b865550613165565b601f19841661311386612eef565b60005b8281101561313b57848901518255600182019150602085019450602081019050613116565b868310156131585784890151613154601f891682613061565b8355505b6001600288020188555050505b505050505050565b7f4552433732313a207472616e736665722066726f6d20696e636f72726563742060008201527f6f776e6572000000000000000000000000000000000000000000000000000000602082015250565b60006131c9602583612276565b91506131d48261316d565b604082019050919050565b600060208201905081810360008301526131f8816131bc565b9050919050565b7f4552433732313a207472616e7366657220746f20746865207a65726f2061646460008201527f7265737300000000000000000000000000000000000000000000000000000000602082015250565b600061325b602483612276565b9150613266826131ff565b604082019050919050565b6000602082019050818103600083015261328a8161324e565b9050919050565b7f4552433732313a20617070726f766520746f2063616c6c657200000000000000600082015250565b60006132c7601983612276565b91506132d282613291565b602082019050919050565b600060208201905081810360008301526132f6816132ba565b9050919050565b7f4552433732313a207472616e7366657220746f206e6f6e20455243373231526560008201527f63656976657220696d706c656d656e7465720000000000000000000000000000602082015250565b6000613359603283612276565b9150613364826132fd565b604082019050919050565b600060208201905081810360008301526133888161334c565b9050919050565b7f4e487b7100000000000000000000000000000000000000000000000000000000600052601260045260246000fd5b7f4552433732313a206d696e7420746f20746865207a65726f2061646472657373600082015250565b60006133f4602083612276565b91506133ff826133be565b602082019050919050565b60006020820190508181036000830152613423816133e7565b9050919050565b7f4552433732313a20746f6b656e20616c7265616479206d696e74656400000000600082015250565b6000613460601c83612276565b915061346b8261342a565b602082019050919050565b6000602082019050818103600083015261348f81613453565b9050919050565b600081519050919050565b600082825260208201905092915050565b60006134bd82613496565b6134c781856134a1565b93506134d7818560208601612287565b6134e0816122b1565b840191505092915050565b600060808201905061350060008301876123b2565b61350d60208301866123b2565b61351a60408301856124c8565b818103606083015261352c81846134b2565b905095945050505050565b600081519050613546816121dc565b92915050565b600060208284031215613562576135616121a6565b5b600061357084828501613537565b9150509291505056fea26469706673582212207e0c9f734b57fd0eddfa2b81ba9f3f8cc8499bbfe243ab133dced03bfb430ee564736f6c63430008130033",
  "immutableReferences": {},
  "source": "// SPDX-License-Identifier: MIT\r\npragma solidity >=0.8.2 <0.9.0;\r\n\r\nimport \"./Land.sol\";\r\n\r\ncontract LandSale is LandRegistration {\r\n\r\n    struct BidDetail {\r\n        uint256 highestBid;\r\n        address highestBidder;\r\n        mapping(address => uint256) bids;\r\n        address[] bidders;\r\n    }\r\n    mapping(uint256 => BidDetail) bidDetails;\r\n\r\n    function bid(uint256 landID) public payable {\r\n        require(msg.sender != ownerOf(landID));\r\n        require(bidDetails[landID].bids[msg.sender] + msg.value > bidDetails[landID].highestBid, \"can't bid, make a higher Bid\");\r\n        bidDetails[landID].highestBidder = msg.sender;\r\n        bidDetails[landID].bidders.push(msg.sender);\r\n        bidDetails[landID].highestBid = bidDetails[landID].bids[msg.sender] + msg.value;\r\n        bidDetails[landID].bids[msg.sender] += msg.value;\r\n    }\r\n\r\n    function acceptBid(uint256 landID) public {\r\n        payable(msg.sender).transfer(bidDetails[landID].highestBid);\r\n        safeTransferFrom(msg.sender, bidDetails[landID].highestBidder, landID);\r\n        for(uint256 i = 0; i < bidDetails[landID].bidders.length; i++) {\r\n            if (bidDetails[landID].bidders[i] == bidDetails[landID].highestBidder) {\r\n                continue;\r\n            }\r\n            payable(bidDetails[landID].bidders[i]).transfer(bidDetails[landID].bids[bidDetails[landID].bidders[i]]);\r\n        }\r\n        landDetails[landID].salesStatus = true;\r\n    }\r\n\r\n    fallback() external {\r\n        revert();\r\n    }\r\n}",
  "sourcePath": "D:\\KBA\\land-marketplace-dapp\\contracts\\LandSale.sol",
  "compiler": {
    "name": "solc",
    "version": "0.8.19+commit.7dd6d404.Emscripten.clang"
  },
  "schemaVersion": "3.4.13",
  "updatedAt": "2023-05-15T01:53:34.826Z",
  "devdoc": {
    "events": {
      "Approval(address,address,uint256)": {
        "details": "Emitted when `owner` enables `approved` to manage the `tokenId` token."
      },
      "ApprovalForAll(address,address,bool)": {
        "details": "Emitted when `owner` enables or disables (`approved`) `operator` to manage all of its assets."
      },
      "Transfer(address,address,uint256)": {
        "details": "Emitted when `tokenId` token is transferred from `from` to `to`."
      }
    },
    "kind": "dev",
    "methods": {
      "approve(address,uint256)": {
        "details": "See {IERC721-approve}."
      },
      "balanceOf(address)": {
        "details": "See {IERC721-balanceOf}."
      },
      "getApproved(uint256)": {
        "details": "See {IERC721-getApproved}."
      },
      "isApprovedForAll(address,address)": {
        "details": "See {IERC721-isApprovedForAll}."
      },
      "name()": {
        "details": "See {IERC721Metadata-name}."
      },
      "ownerOf(uint256)": {
        "details": "See {IERC721-ownerOf}."
      },
      "safeTransferFrom(address,address,uint256)": {
        "details": "See {IERC721-safeTransferFrom}."
      },
      "safeTransferFrom(address,address,uint256,bytes)": {
        "details": "See {IERC721-safeTransferFrom}."
      },
      "setApprovalForAll(address,bool)": {
        "details": "See {IERC721-setApprovalForAll}."
      },
      "supportsInterface(bytes4)": {
        "details": "See {IERC165-supportsInterface}."
      },
      "symbol()": {
        "details": "See {IERC721Metadata-symbol}."
      },
      "tokenURI(uint256)": {
        "details": "See {IERC721Metadata-tokenURI}."
      },
      "transferFrom(address,address,uint256)": {
        "details": "See {IERC721-transferFrom}."
      }
    },
    "version": 1
  },
  "userdoc": {
    "kind": "user",
    "methods": {},
    "version": 1
  }
}