{
  "contractName": "LandRegistration",
  "abi": [
    {
      "inputs": [],
      "name": "registeredLandCount",
      "outputs": [
        {
          "internalType": "uint256",
          "name": "",
          "type": "uint256"
        }
      ],
      "stateMutability": "view",
      "type": "function"
    },
    {
      "inputs": [
        {
          "internalType": "uint256",
          "name": "surveyNo",
          "type": "uint256"
        },
        {
          "internalType": "uint256",
          "name": "blockNo",
          "type": "uint256"
        },
        {
          "internalType": "string",
          "name": "province",
          "type": "string"
        },
        {
          "internalType": "string",
          "name": "district",
          "type": "string"
        },
        {
          "internalType": "string",
          "name": "village",
          "type": "string"
        },
        {
          "internalType": "uint256",
          "name": "landValue",
          "type": "uint256"
        },
        {
          "internalType": "uint256",
          "name": "area",
          "type": "uint256"
        }
      ],
      "name": "registerNewLand",
      "outputs": [],
      "stateMutability": "nonpayable",
      "type": "function"
    },
    {
      "inputs": [
        {
          "internalType": "uint256",
          "name": "landID",
          "type": "uint256"
        }
      ],
      "name": "getLandDetails",
      "outputs": [
        {
          "components": [
            {
              "internalType": "string",
              "name": "province",
              "type": "string"
            },
            {
              "internalType": "string",
              "name": "district",
              "type": "string"
            },
            {
              "internalType": "string",
              "name": "village",
              "type": "string"
            },
            {
              "internalType": "uint256",
              "name": "blockNo",
              "type": "uint256"
            },
            {
              "internalType": "uint256",
              "name": "surveyNo",
              "type": "uint256"
            },
            {
              "internalType": "uint256",
              "name": "landValue",
              "type": "uint256"
            },
            {
              "internalType": "uint256",
              "name": "area",
              "type": "uint256"
            },
            {
              "internalType": "bool",
              "name": "salesStatus",
              "type": "bool"
            }
          ],
          "internalType": "struct LandRegistration.LandDetail",
          "name": "",
          "type": "tuple"
        }
      ],
      "stateMutability": "view",
      "type": "function"
    }
  ],
  "bytecode": "0x6080604052600060015534801561001557600080fd5b50610c00806100256000396000f3fe608060405234801561001057600080fd5b50600436106100415760003560e01c8063a7613a7d14610046578063e6fdc4a114610064578063fe0cb7dc14610080575b600080fd5b61004e6100b0565b60405161005b919061043c565b60405180910390f35b61007e600480360381019061007991906105dd565b6100b6565b005b61009a600480360381019061009591906106d3565b6101b6565b6040516100a79190610867565b60405180910390f35b60015481565b604051806101000160405280868152602001858152602001848152602001888152602001878152602001838152602001828152602001600015158152506000806001548152602001908152602001600020600082015181600001908161011c9190610a95565b5060208201518160010190816101329190610a95565b5060408201518160020190816101489190610a95565b50606082015181600301556080820151816004015560a0820151816005015560c0820151816006015560e08201518160070160006101000a81548160ff02191690831515021790555090505060018060008282546101a69190610b96565b9250508190555050505050505050565b6101be6103dc565b600080838152602001908152602001600020604051806101000160405290816000820180546101ec906108b8565b80601f0160208091040260200160405190810160405280929190818152602001828054610218906108b8565b80156102655780601f1061023a57610100808354040283529160200191610265565b820191906000526020600020905b81548152906001019060200180831161024857829003601f168201915b5050505050815260200160018201805461027e906108b8565b80601f01602080910402602001604051908101604052809291908181526020018280546102aa906108b8565b80156102f75780601f106102cc576101008083540402835291602001916102f7565b820191906000526020600020905b8154815290600101906020018083116102da57829003601f168201915b50505050508152602001600282018054610310906108b8565b80601f016020809104026020016040519081016040528092919081815260200182805461033c906108b8565b80156103895780601f1061035e57610100808354040283529160200191610389565b820191906000526020600020905b81548152906001019060200180831161036c57829003601f168201915b50505050508152602001600382015481526020016004820154815260200160058201548152602001600682015481526020016007820160009054906101000a900460ff1615151515815250509050919050565b604051806101000160405280606081526020016060815260200160608152602001600081526020016000815260200160008152602001600081526020016000151581525090565b6000819050919050565b61043681610423565b82525050565b6000602082019050610451600083018461042d565b92915050565b6000604051905090565b600080fd5b600080fd5b61047481610423565b811461047f57600080fd5b50565b6000813590506104918161046b565b92915050565b600080fd5b600080fd5b6000601f19601f8301169050919050565b7f4e487b7100000000000000000000000000000000000000000000000000000000600052604160045260246000fd5b6104ea826104a1565b810181811067ffffffffffffffff82111715610509576105086104b2565b5b80604052505050565b600061051c610457565b905061052882826104e1565b919050565b600067ffffffffffffffff821115610548576105476104b2565b5b610551826104a1565b9050602081019050919050565b82818337600083830152505050565b600061058061057b8461052d565b610512565b90508281526020810184848401111561059c5761059b61049c565b5b6105a784828561055e565b509392505050565b600082601f8301126105c4576105c3610497565b5b81356105d484826020860161056d565b91505092915050565b600080600080600080600060e0888a0312156105fc576105fb610461565b5b600061060a8a828b01610482565b975050602061061b8a828b01610482565b965050604088013567ffffffffffffffff81111561063c5761063b610466565b5b6106488a828b016105af565b955050606088013567ffffffffffffffff81111561066957610668610466565b5b6106758a828b016105af565b945050608088013567ffffffffffffffff81111561069657610695610466565b5b6106a28a828b016105af565b93505060a06106b38a828b01610482565b92505060c06106c48a828b01610482565b91505092959891949750929550565b6000602082840312156106e9576106e8610461565b5b60006106f784828501610482565b91505092915050565b600081519050919050565b600082825260208201905092915050565b60005b8381101561073a57808201518184015260208101905061071f565b60008484015250505050565b600061075182610700565b61075b818561070b565b935061076b81856020860161071c565b610774816104a1565b840191505092915050565b61078881610423565b82525050565b60008115159050919050565b6107a38161078e565b82525050565b60006101008301600083015184820360008601526107c78282610746565b915050602083015184820360208601526107e18282610746565b915050604083015184820360408601526107fb8282610746565b9150506060830151610810606086018261077f565b506080830151610823608086018261077f565b5060a083015161083660a086018261077f565b5060c083015161084960c086018261077f565b5060e083015161085c60e086018261079a565b508091505092915050565b6000602082019050818103600083015261088181846107a9565b905092915050565b7f4e487b7100000000000000000000000000000000000000000000000000000000600052602260045260246000fd5b600060028204905060018216806108d057607f821691505b6020821081036108e3576108e2610889565b5b50919050565b60008190508160005260206000209050919050565b60006020601f8301049050919050565b600082821b905092915050565b60006008830261094b7fffffffffffffffffffffffffffffffffffffffffffffffffffffffffffffffff8261090e565b610955868361090e565b95508019841693508086168417925050509392505050565b6000819050919050565b600061099261098d61098884610423565b61096d565b610423565b9050919050565b6000819050919050565b6109ac83610977565b6109c06109b882610999565b84845461091b565b825550505050565b600090565b6109d56109c8565b6109e08184846109a3565b505050565b5b81811015610a04576109f96000826109cd565b6001810190506109e6565b5050565b601f821115610a4957610a1a816108e9565b610a23846108fe565b81016020851015610a32578190505b610a46610a3e856108fe565b8301826109e5565b50505b505050565b600082821c905092915050565b6000610a6c60001984600802610a4e565b1980831691505092915050565b6000610a858383610a5b565b9150826002028217905092915050565b610a9e82610700565b67ffffffffffffffff811115610ab757610ab66104b2565b5b610ac182546108b8565b610acc828285610a08565b600060209050601f831160018114610aff5760008415610aed578287015190505b610af78582610a79565b865550610b5f565b601f198416610b0d866108e9565b60005b82811015610b3557848901518255600182019150602085019450602081019050610b10565b86831015610b525784890151610b4e601f891682610a5b565b8355505b6001600288020188555050505b505050505050565b7f4e487b7100000000000000000000000000000000000000000000000000000000600052601160045260246000fd5b6000610ba182610423565b9150610bac83610423565b9250828201905080821115610bc457610bc3610b67565b5b9291505056fea2646970667358221220091634b05f9cb39c75ce4f3a0cc7721c157f189562611ae16ec02e2a41e9e6c064736f6c63430008130033",
  "immutableReferences": {},
  "source": "// SPDX-License-Identifier: MIT\r\npragma solidity >=0.8.2 <0.9.0;\r\n\r\ncontract LandRegistration  {\r\n    struct LandDetail {\r\n        string province;\r\n        string district;\r\n        string village;\r\n        uint blockNo;\r\n        uint surveyNo;\r\n        uint landValue; // in wei\r\n        uint area;\r\n        bool salesStatus;\r\n    }\r\n\r\n    mapping(uint => LandDetail) landDetails;\r\n\r\n    uint public registeredLandCount = 0;\r\n\r\n    bool salesStatus;\r\n\r\n    function registerNewLand(\r\n        uint surveyNo,\r\n        uint blockNo,\r\n        string memory province,\r\n        string memory district,\r\n        string memory village,\r\n        uint landValue,\r\n        uint area\r\n    ) public {\r\n        landDetails[registeredLandCount] = LandDetail(\r\n            province,\r\n            district,\r\n            village,\r\n            surveyNo,\r\n            blockNo,\r\n            landValue,\r\n            area,\r\n            false\r\n        );\r\n        registeredLandCount += 1;\r\n    }\r\n\r\n    function getLandDetails(\r\n        uint landID\r\n    ) public view returns (LandDetail memory) {\r\n        return landDetails[landID];\r\n    }\r\n}\r\n",
  "sourcePath": "D:\\KBA\\land-marketplace-dapp\\contracts\\Land.sol",
  "compiler": {
    "name": "solc",
    "version": "0.8.19+commit.7dd6d404.Emscripten.clang"
  },
  "schemaVersion": "3.4.13",
  "updatedAt": "2023-05-10T12:42:41.185Z",
  "devdoc": {
    "kind": "dev",
    "methods": {},
    "version": 1
  },
  "userdoc": {
    "kind": "user",
    "methods": {},
    "version": 1
  }
}