{
  "contractName": "LandRegistration",
  "abi": [
    {
      "inputs": [],
      "stateMutability": "nonpayable",
      "type": "constructor"
    },
    {
      "anonymous": false,
      "inputs": [
        {
          "indexed": true,
          "internalType": "address",
          "name": "owner",
          "type": "address"
        },
        {
          "indexed": true,
          "internalType": "address",
          "name": "approved",
          "type": "address"
        },
        {
          "indexed": true,
          "internalType": "uint256",
          "name": "tokenId",
          "type": "uint256"
        }
      ],
      "name": "Approval",
      "type": "event"
    },
    {
      "anonymous": false,
      "inputs": [
        {
          "indexed": true,
          "internalType": "address",
          "name": "owner",
          "type": "address"
        },
        {
          "indexed": true,
          "internalType": "address",
          "name": "operator",
          "type": "address"
        },
        {
          "indexed": false,
          "internalType": "bool",
          "name": "approved",
          "type": "bool"
        }
      ],
      "name": "ApprovalForAll",
      "type": "event"
    },
    {
      "anonymous": false,
      "inputs": [
        {
          "indexed": true,
          "internalType": "address",
          "name": "from",
          "type": "address"
        },
        {
          "indexed": true,
          "internalType": "address",
          "name": "to",
          "type": "address"
        },
        {
          "indexed": true,
          "internalType": "uint256",
          "name": "tokenId",
          "type": "uint256"
        }
      ],
      "name": "Transfer",
      "type": "event"
    },
    {
      "inputs": [
        {
          "internalType": "address",
          "name": "to",
          "type": "address"
        },
        {
          "internalType": "uint256",
          "name": "tokenId",
          "type": "uint256"
        }
      ],
      "name": "approve",
      "outputs": [],
      "stateMutability": "nonpayable",
      "type": "function"
    },
    {
      "inputs": [
        {
          "internalType": "address",
          "name": "owner",
          "type": "address"
        }
      ],
      "name": "balanceOf",
      "outputs": [
        {
          "internalType": "uint256",
          "name": "",
          "type": "uint256"
        }
      ],
      "stateMutability": "view",
      "type": "function"
    },
    {
      "inputs": [
        {
          "internalType": "uint256",
          "name": "tokenId",
          "type": "uint256"
        }
      ],
      "name": "getApproved",
      "outputs": [
        {
          "internalType": "address",
          "name": "",
          "type": "address"
        }
      ],
      "stateMutability": "view",
      "type": "function"
    },
    {
      "inputs": [
        {
          "internalType": "address",
          "name": "owner",
          "type": "address"
        },
        {
          "internalType": "address",
          "name": "operator",
          "type": "address"
        }
      ],
      "name": "isApprovedForAll",
      "outputs": [
        {
          "internalType": "bool",
          "name": "",
          "type": "bool"
        }
      ],
      "stateMutability": "view",
      "type": "function"
    },
    {
      "inputs": [],
      "name": "name",
      "outputs": [
        {
          "internalType": "string",
          "name": "",
          "type": "string"
        }
      ],
      "stateMutability": "view",
      "type": "function"
    },
    {
      "inputs": [
        {
          "internalType": "uint256",
          "name": "tokenId",
          "type": "uint256"
        }
      ],
      "name": "ownerOf",
      "outputs": [
        {
          "internalType": "address",
          "name": "",
          "type": "address"
        }
      ],
      "stateMutability": "view",
      "type": "function"
    },
    {
      "inputs": [],
      "name": "registeredLandCount",
      "outputs": [
        {
          "internalType": "uint256",
          "name": "",
          "type": "uint256"
        }
      ],
      "stateMutability": "view",
      "type": "function"
    },
    {
      "inputs": [
        {
          "internalType": "address",
          "name": "from",
          "type": "address"
        },
        {
          "internalType": "address",
          "name": "to",
          "type": "address"
        },
        {
          "internalType": "uint256",
          "name": "tokenId",
          "type": "uint256"
        }
      ],
      "name": "safeTransferFrom",
      "outputs": [],
      "stateMutability": "nonpayable",
      "type": "function"
    },
    {
      "inputs": [
        {
          "internalType": "address",
          "name": "from",
          "type": "address"
        },
        {
          "internalType": "address",
          "name": "to",
          "type": "address"
        },
        {
          "internalType": "uint256",
          "name": "tokenId",
          "type": "uint256"
        },
        {
          "internalType": "bytes",
          "name": "data",
          "type": "bytes"
        }
      ],
      "name": "safeTransferFrom",
      "outputs": [],
      "stateMutability": "nonpayable",
      "type": "function"
    },
    {
      "inputs": [
        {
          "internalType": "address",
          "name": "operator",
          "type": "address"
        },
        {
          "internalType": "bool",
          "name": "approved",
          "type": "bool"
        }
      ],
      "name": "setApprovalForAll",
      "outputs": [],
      "stateMutability": "nonpayable",
      "type": "function"
    },
    {
      "inputs": [
        {
          "internalType": "bytes4",
          "name": "interfaceId",
          "type": "bytes4"
        }
      ],
      "name": "supportsInterface",
      "outputs": [
        {
          "internalType": "bool",
          "name": "",
          "type": "bool"
        }
      ],
      "stateMutability": "view",
      "type": "function"
    },
    {
      "inputs": [],
      "name": "symbol",
      "outputs": [
        {
          "internalType": "string",
          "name": "",
          "type": "string"
        }
      ],
      "stateMutability": "view",
      "type": "function"
    },
    {
      "inputs": [
        {
          "internalType": "uint256",
          "name": "tokenId",
          "type": "uint256"
        }
      ],
      "name": "tokenURI",
      "outputs": [
        {
          "internalType": "string",
          "name": "",
          "type": "string"
        }
      ],
      "stateMutability": "view",
      "type": "function"
    },
    {
      "inputs": [
        {
          "internalType": "address",
          "name": "from",
          "type": "address"
        },
        {
          "internalType": "address",
          "name": "to",
          "type": "address"
        },
        {
          "internalType": "uint256",
          "name": "tokenId",
          "type": "uint256"
        }
      ],
      "name": "transferFrom",
      "outputs": [],
      "stateMutability": "nonpayable",
      "type": "function"
    },
    {
      "inputs": [
        {
          "internalType": "uint256",
          "name": "surveyNo",
          "type": "uint256"
        },
        {
          "internalType": "uint256",
          "name": "blockNo",
          "type": "uint256"
        },
        {
          "internalType": "string",
          "name": "province",
          "type": "string"
        },
        {
          "internalType": "string",
          "name": "district",
          "type": "string"
        },
        {
          "internalType": "string",
          "name": "village",
          "type": "string"
        },
        {
          "internalType": "uint256",
          "name": "landValue",
          "type": "uint256"
        },
        {
          "internalType": "uint256",
          "name": "area",
          "type": "uint256"
        }
      ],
      "name": "registerNewLand",
      "outputs": [],
      "stateMutability": "nonpayable",
      "type": "function"
    },
    {
      "inputs": [
        {
          "internalType": "uint256",
          "name": "landID",
          "type": "uint256"
        }
      ],
      "name": "getLandDetails",
      "outputs": [
        {
          "components": [
            {
              "internalType": "string",
              "name": "province",
              "type": "string"
            },
            {
              "internalType": "string",
              "name": "district",
              "type": "string"
            },
            {
              "internalType": "string",
              "name": "village",
              "type": "string"
            },
            {
              "internalType": "uint256",
              "name": "blockNo",
              "type": "uint256"
            },
            {
              "internalType": "uint256",
              "name": "surveyNo",
              "type": "uint256"
            },
            {
              "internalType": "uint256",
              "name": "landValue",
              "type": "uint256"
            },
            {
              "internalType": "uint256",
              "name": "area",
              "type": "uint256"
            },
            {
              "internalType": "bool",
              "name": "salesStatus",
              "type": "bool"
            }
          ],
          "internalType": "struct LandRegistration.LandDetail",
          "name": "",
          "type": "tuple"
        }
      ],
      "stateMutability": "view",
      "type": "function"
    }
  ],
  "bytecode": "0x608060405260006007553480156200001657600080fd5b506040518060400160405280600481526020017f4c616e64000000000000000000000000000000000000000000000000000000008152506040518060400160405280600381526020017f4c4e440000000000000000000000000000000000000000000000000000000000815250816000908162000094919062000329565b508060019081620000a6919062000329565b50505062000410565b600081519050919050565b7f4e487b7100000000000000000000000000000000000000000000000000000000600052604160045260246000fd5b7f4e487b7100000000000000000000000000000000000000000000000000000000600052602260045260246000fd5b600060028204905060018216806200013157607f821691505b602082108103620001475762000146620000e9565b5b50919050565b60008190508160005260206000209050919050565b60006020601f8301049050919050565b600082821b905092915050565b600060088302620001b17fffffffffffffffffffffffffffffffffffffffffffffffffffffffffffffffff8262000172565b620001bd868362000172565b95508019841693508086168417925050509392505050565b6000819050919050565b6000819050919050565b60006200020a62000204620001fe84620001d5565b620001df565b620001d5565b9050919050565b6000819050919050565b6200022683620001e9565b6200023e620002358262000211565b8484546200017f565b825550505050565b600090565b6200025562000246565b620002628184846200021b565b505050565b5b818110156200028a576200027e6000826200024b565b60018101905062000268565b5050565b601f821115620002d957620002a3816200014d565b620002ae8462000162565b81016020851015620002be578190505b620002d6620002cd8562000162565b83018262000267565b50505b505050565b600082821c905092915050565b6000620002fe60001984600802620002de565b1980831691505092915050565b6000620003198383620002eb565b9150826002028217905092915050565b6200033482620000af565b67ffffffffffffffff81111562000350576200034f620000ba565b5b6200035c825462000118565b620003698282856200028e565b600060209050601f831160018114620003a157600084156200038c578287015190505b6200039885826200030b565b86555062000408565b601f198416620003b1866200014d565b60005b82811015620003db57848901518255600182019150602085019450602081019050620003b4565b86831015620003fb5784890151620003f7601f891682620002eb565b8355505b6001600288020188555050505b505050505050565b612df280620004206000396000f3fe608060405234801561001057600080fd5b50600436106101005760003560e01c806395d89b4111610097578063c87b56dd11610066578063c87b56dd146102ab578063e6fdc4a1146102db578063e985e9c5146102f7578063fe0cb7dc1461032757610100565b806395d89b4114610237578063a22cb46514610255578063a7613a7d14610271578063b88d4fde1461028f57610100565b806323b872dd116100d357806323b872dd1461019f57806342842e0e146101bb5780636352211e146101d757806370a082311461020757610100565b806301ffc9a71461010557806306fdde0314610135578063081812fc14610153578063095ea7b314610183575b600080fd5b61011f600480360381019061011a9190611b2e565b610357565b60405161012c9190611b76565b60405180910390f35b61013d610439565b60405161014a9190611c21565b60405180910390f35b61016d60048036038101906101689190611c79565b6104cb565b60405161017a9190611ce7565b60405180910390f35b61019d60048036038101906101989190611d2e565b610511565b005b6101b960048036038101906101b49190611d6e565b610628565b005b6101d560048036038101906101d09190611d6e565b610688565b005b6101f160048036038101906101ec9190611c79565b6106a8565b6040516101fe9190611ce7565b60405180910390f35b610221600480360381019061021c9190611dc1565b61072e565b60405161022e9190611dfd565b60405180910390f35b61023f6107e5565b60405161024c9190611c21565b60405180910390f35b61026f600480360381019061026a9190611e44565b610877565b005b61027961088d565b6040516102869190611dfd565b60405180910390f35b6102a960048036038101906102a49190611fb9565b610893565b005b6102c560048036038101906102c09190611c79565b6108f5565b6040516102d29190611c21565b60405180910390f35b6102f560048036038101906102f091906120dd565b61095d565b005b610311600480360381019061030c91906121d3565b610a6b565b60405161031e9190611b76565b60405180910390f35b610341600480360381019061033c9190611c79565b610aff565b60405161034e9190612339565b60405180910390f35b60007f80ac58cd000000000000000000000000000000000000000000000000000000007bffffffffffffffffffffffffffffffffffffffffffffffffffffffff1916827bffffffffffffffffffffffffffffffffffffffffffffffffffffffff1916148061042257507f5b5e139f000000000000000000000000000000000000000000000000000000007bffffffffffffffffffffffffffffffffffffffffffffffffffffffff1916827bffffffffffffffffffffffffffffffffffffffffffffffffffffffff1916145b80610432575061043182610d26565b5b9050919050565b6060600080546104489061238a565b80601f01602080910402602001604051908101604052809291908181526020018280546104749061238a565b80156104c15780601f10610496576101008083540402835291602001916104c1565b820191906000526020600020905b8154815290600101906020018083116104a457829003601f168201915b5050505050905090565b60006104d682610d90565b6004600083815260200190815260200160002060009054906101000a900473ffffffffffffffffffffffffffffffffffffffff169050919050565b600061051c826106a8565b90508073ffffffffffffffffffffffffffffffffffffffff168373ffffffffffffffffffffffffffffffffffffffff160361058c576040517f08c379a00000000000000000000000000000000000000000000000000000000081526004016105839061242d565b60405180910390fd5b8073ffffffffffffffffffffffffffffffffffffffff166105ab610ddb565b73ffffffffffffffffffffffffffffffffffffffff1614806105da57506105d9816105d4610ddb565b610a6b565b5b610619576040517f08c379a0000000000000000000000000000000000000000000000000000000008152600401610610906124bf565b60405180910390fd5b6106238383610de3565b505050565b610639610633610ddb565b82610e9c565b610678576040517f08c379a000000000000000000000000000000000000000000000000000000000815260040161066f90612551565b60405180910390fd5b610683838383610f31565b505050565b6106a383838360405180602001604052806000815250610893565b505050565b6000806106b48361122a565b9050600073ffffffffffffffffffffffffffffffffffffffff168173ffffffffffffffffffffffffffffffffffffffff1603610725576040517f08c379a000000000000000000000000000000000000000000000000000000000815260040161071c906125bd565b60405180910390fd5b80915050919050565b60008073ffffffffffffffffffffffffffffffffffffffff168273ffffffffffffffffffffffffffffffffffffffff160361079e576040517f08c379a00000000000000000000000000000000000000000000000000000000081526004016107959061264f565b60405180910390fd5b600360008373ffffffffffffffffffffffffffffffffffffffff1673ffffffffffffffffffffffffffffffffffffffff168152602001908152602001600020549050919050565b6060600180546107f49061238a565b80601f01602080910402602001604051908101604052809291908181526020018280546108209061238a565b801561086d5780601f106108425761010080835404028352916020019161086d565b820191906000526020600020905b81548152906001019060200180831161085057829003601f168201915b5050505050905090565b610889610882610ddb565b8383611267565b5050565b60075481565b6108a461089e610ddb565b83610e9c565b6108e3576040517f08c379a00000000000000000000000000000000000000000000000000000000081526004016108da90612551565b60405180910390fd5b6108ef848484846113d3565b50505050565b606061090082610d90565b600061090a61142f565b9050600081511161092a5760405180602001604052806000815250610955565b8061093484611446565b6040516020016109459291906126ab565b6040516020818303038152906040525b915050919050565b6040518061010001604052808681526020018581526020018481526020018881526020018781526020018381526020018281526020016000151581525060066000600754815260200190815260200160002060008201518160000190816109c4919061287b565b5060208201518160010190816109da919061287b565b5060408201518160020190816109f0919061287b565b50606082015181600301556080820151816004015560a0820151816005015560c0820151816006015560e08201518160070160006101000a81548160ff021916908315150217905550905050610a4833600754611514565b600160076000828254610a5b919061297c565b9250508190555050505050505050565b6000600560008473ffffffffffffffffffffffffffffffffffffffff1673ffffffffffffffffffffffffffffffffffffffff16815260200190815260200160002060008373ffffffffffffffffffffffffffffffffffffffff1673ffffffffffffffffffffffffffffffffffffffff16815260200190815260200160002060009054906101000a900460ff16905092915050565b610b07611a7b565b6006600083815260200190815260200160002060405180610100016040529081600082018054610b369061238a565b80601f0160208091040260200160405190810160405280929190818152602001828054610b629061238a565b8015610baf5780601f10610b8457610100808354040283529160200191610baf565b820191906000526020600020905b815481529060010190602001808311610b9257829003601f168201915b50505050508152602001600182018054610bc89061238a565b80601f0160208091040260200160405190810160405280929190818152602001828054610bf49061238a565b8015610c415780601f10610c1657610100808354040283529160200191610c41565b820191906000526020600020905b815481529060010190602001808311610c2457829003601f168201915b50505050508152602001600282018054610c5a9061238a565b80601f0160208091040260200160405190810160405280929190818152602001828054610c869061238a565b8015610cd35780601f10610ca857610100808354040283529160200191610cd3565b820191906000526020600020905b815481529060010190602001808311610cb657829003601f168201915b50505050508152602001600382015481526020016004820154815260200160058201548152602001600682015481526020016007820160009054906101000a900460ff1615151515815250509050919050565b60007f01ffc9a7000000000000000000000000000000000000000000000000000000007bffffffffffffffffffffffffffffffffffffffffffffffffffffffff1916827bffffffffffffffffffffffffffffffffffffffffffffffffffffffff1916149050919050565b610d9981611731565b610dd8576040517f08c379a0000000000000000000000000000000000000000000000000000000008152600401610dcf906125bd565b60405180910390fd5b50565b600033905090565b816004600083815260200190815260200160002060006101000a81548173ffffffffffffffffffffffffffffffffffffffff021916908373ffffffffffffffffffffffffffffffffffffffff160217905550808273ffffffffffffffffffffffffffffffffffffffff16610e56836106a8565b73ffffffffffffffffffffffffffffffffffffffff167f8c5be1e5ebec7d5bd14f71427d1e84f3dd0314c0f7b2291e5b200ac8c7c3b92560405160405180910390a45050565b600080610ea8836106a8565b90508073ffffffffffffffffffffffffffffffffffffffff168473ffffffffffffffffffffffffffffffffffffffff161480610eea5750610ee98185610a6b565b5b80610f2857508373ffffffffffffffffffffffffffffffffffffffff16610f10846104cb565b73ffffffffffffffffffffffffffffffffffffffff16145b91505092915050565b8273ffffffffffffffffffffffffffffffffffffffff16610f51826106a8565b73ffffffffffffffffffffffffffffffffffffffff1614610fa7576040517f08c379a0000000000000000000000000000000000000000000000000000000008152600401610f9e90612a22565b60405180910390fd5b600073ffffffffffffffffffffffffffffffffffffffff168273ffffffffffffffffffffffffffffffffffffffff1603611016576040517f08c379a000000000000000000000000000000000000000000000000000000000815260040161100d90612ab4565b60405180910390fd5b6110238383836001611772565b8273ffffffffffffffffffffffffffffffffffffffff16611043826106a8565b73ffffffffffffffffffffffffffffffffffffffff1614611099576040517f08c379a000000000000000000000000000000000000000000000000000000000815260040161109090612a22565b60405180910390fd5b6004600082815260200190815260200160002060006101000a81549073ffffffffffffffffffffffffffffffffffffffff02191690556001600360008573ffffffffffffffffffffffffffffffffffffffff1673ffffffffffffffffffffffffffffffffffffffff168152602001908152602001600020600082825403925050819055506001600360008473ffffffffffffffffffffffffffffffffffffffff1673ffffffffffffffffffffffffffffffffffffffff16815260200190815260200160002060008282540192505081905550816002600083815260200190815260200160002060006101000a81548173ffffffffffffffffffffffffffffffffffffffff021916908373ffffffffffffffffffffffffffffffffffffffff160217905550808273ffffffffffffffffffffffffffffffffffffffff168473ffffffffffffffffffffffffffffffffffffffff167fddf252ad1be2c89b69c2b068fc378daa952ba7f163c4a11628f55a4df523b3ef60405160405180910390a46112258383836001611778565b505050565b60006002600083815260200190815260200160002060009054906101000a900473ffffffffffffffffffffffffffffffffffffffff169050919050565b8173ffffffffffffffffffffffffffffffffffffffff168373ffffffffffffffffffffffffffffffffffffffff16036112d5576040517f08c379a00000000000000000000000000000000000000000000000000000000081526004016112cc90612b20565b60405180910390fd5b80600560008573ffffffffffffffffffffffffffffffffffffffff1673ffffffffffffffffffffffffffffffffffffffff16815260200190815260200160002060008473ffffffffffffffffffffffffffffffffffffffff1673ffffffffffffffffffffffffffffffffffffffff16815260200190815260200160002060006101000a81548160ff0219169083151502179055508173ffffffffffffffffffffffffffffffffffffffff168373ffffffffffffffffffffffffffffffffffffffff167f17307eab39ab6107e8899845ad3d59bd9653f200f220920489ca2b5937696c31836040516113c69190611b76565b60405180910390a3505050565b6113de848484610f31565b6113ea8484848461177e565b611429576040517f08c379a000000000000000000000000000000000000000000000000000000000815260040161142090612bb2565b60405180910390fd5b50505050565b606060405180602001604052806000815250905090565b60606000600161145584611905565b01905060008167ffffffffffffffff81111561147457611473611e8e565b5b6040519080825280601f01601f1916602001820160405280156114a65781602001600182028036833780820191505090505b509050600082602001820190505b600115611509578080600190039150507f3031323334353637383961626364656600000000000000000000000000000000600a86061a8153600a85816114fd576114fc612bd2565b5b049450600085036114b4575b819350505050919050565b600073ffffffffffffffffffffffffffffffffffffffff168273ffffffffffffffffffffffffffffffffffffffff1603611583576040517f08c379a000000000000000000000000000000000000000000000000000000000815260040161157a90612c4d565b60405180910390fd5b61158c81611731565b156115cc576040517f08c379a00000000000000000000000000000000000000000000000000000000081526004016115c390612cb9565b60405180910390fd5b6115da600083836001611772565b6115e381611731565b15611623576040517f08c379a000000000000000000000000000000000000000000000000000000000815260040161161a90612cb9565b60405180910390fd5b6001600360008473ffffffffffffffffffffffffffffffffffffffff1673ffffffffffffffffffffffffffffffffffffffff16815260200190815260200160002060008282540192505081905550816002600083815260200190815260200160002060006101000a81548173ffffffffffffffffffffffffffffffffffffffff021916908373ffffffffffffffffffffffffffffffffffffffff160217905550808273ffffffffffffffffffffffffffffffffffffffff16600073ffffffffffffffffffffffffffffffffffffffff167fddf252ad1be2c89b69c2b068fc378daa952ba7f163c4a11628f55a4df523b3ef60405160405180910390a461172d600083836001611778565b5050565b60008073ffffffffffffffffffffffffffffffffffffffff166117538361122a565b73ffffffffffffffffffffffffffffffffffffffff1614159050919050565b50505050565b50505050565b600061179f8473ffffffffffffffffffffffffffffffffffffffff16611a58565b156118f8578373ffffffffffffffffffffffffffffffffffffffff1663150b7a026117c8610ddb565b8786866040518563ffffffff1660e01b81526004016117ea9493929190612d2e565b6020604051808303816000875af192505050801561182657506040513d601f19601f820116820180604052508101906118239190612d8f565b60015b6118a8573d8060008114611856576040519150601f19603f3d011682016040523d82523d6000602084013e61185b565b606091505b5060008151036118a0576040517f08c379a000000000000000000000000000000000000000000000000000000000815260040161189790612bb2565b60405180910390fd5b805181602001fd5b63150b7a0260e01b7bffffffffffffffffffffffffffffffffffffffffffffffffffffffff1916817bffffffffffffffffffffffffffffffffffffffffffffffffffffffff1916149150506118fd565b600190505b949350505050565b600080600090507a184f03e93ff9f4daa797ed6e38ed64bf6a1f0100000000000000008310611963577a184f03e93ff9f4daa797ed6e38ed64bf6a1f010000000000000000838161195957611958612bd2565b5b0492506040810190505b6d04ee2d6d415b85acef810000000083106119a0576d04ee2d6d415b85acef8100000000838161199657611995612bd2565b5b0492506020810190505b662386f26fc1000083106119cf57662386f26fc1000083816119c5576119c4612bd2565b5b0492506010810190505b6305f5e10083106119f8576305f5e10083816119ee576119ed612bd2565b5b0492506008810190505b6127108310611a1d576127108381611a1357611a12612bd2565b5b0492506004810190505b60648310611a405760648381611a3657611a35612bd2565b5b0492506002810190505b600a8310611a4f576001810190505b80915050919050565b6000808273ffffffffffffffffffffffffffffffffffffffff163b119050919050565b604051806101000160405280606081526020016060815260200160608152602001600081526020016000815260200160008152602001600081526020016000151581525090565b6000604051905090565b600080fd5b600080fd5b60007fffffffff0000000000000000000000000000000000000000000000000000000082169050919050565b611b0b81611ad6565b8114611b1657600080fd5b50565b600081359050611b2881611b02565b92915050565b600060208284031215611b4457611b43611acc565b5b6000611b5284828501611b19565b91505092915050565b60008115159050919050565b611b7081611b5b565b82525050565b6000602082019050611b8b6000830184611b67565b92915050565b600081519050919050565b600082825260208201905092915050565b60005b83811015611bcb578082015181840152602081019050611bb0565b60008484015250505050565b6000601f19601f8301169050919050565b6000611bf382611b91565b611bfd8185611b9c565b9350611c0d818560208601611bad565b611c1681611bd7565b840191505092915050565b60006020820190508181036000830152611c3b8184611be8565b905092915050565b6000819050919050565b611c5681611c43565b8114611c6157600080fd5b50565b600081359050611c7381611c4d565b92915050565b600060208284031215611c8f57611c8e611acc565b5b6000611c9d84828501611c64565b91505092915050565b600073ffffffffffffffffffffffffffffffffffffffff82169050919050565b6000611cd182611ca6565b9050919050565b611ce181611cc6565b82525050565b6000602082019050611cfc6000830184611cd8565b92915050565b611d0b81611cc6565b8114611d1657600080fd5b50565b600081359050611d2881611d02565b92915050565b60008060408385031215611d4557611d44611acc565b5b6000611d5385828601611d19565b9250506020611d6485828601611c64565b9150509250929050565b600080600060608486031215611d8757611d86611acc565b5b6000611d9586828701611d19565b9350506020611da686828701611d19565b9250506040611db786828701611c64565b9150509250925092565b600060208284031215611dd757611dd6611acc565b5b6000611de584828501611d19565b91505092915050565b611df781611c43565b82525050565b6000602082019050611e126000830184611dee565b92915050565b611e2181611b5b565b8114611e2c57600080fd5b50565b600081359050611e3e81611e18565b92915050565b60008060408385031215611e5b57611e5a611acc565b5b6000611e6985828601611d19565b9250506020611e7a85828601611e2f565b9150509250929050565b600080fd5b600080fd5b7f4e487b7100000000000000000000000000000000000000000000000000000000600052604160045260246000fd5b611ec682611bd7565b810181811067ffffffffffffffff82111715611ee557611ee4611e8e565b5b80604052505050565b6000611ef8611ac2565b9050611f048282611ebd565b919050565b600067ffffffffffffffff821115611f2457611f23611e8e565b5b611f2d82611bd7565b9050602081019050919050565b82818337600083830152505050565b6000611f5c611f5784611f09565b611eee565b905082815260208101848484011115611f7857611f77611e89565b5b611f83848285611f3a565b509392505050565b600082601f830112611fa057611f9f611e84565b5b8135611fb0848260208601611f49565b91505092915050565b60008060008060808587031215611fd357611fd2611acc565b5b6000611fe187828801611d19565b9450506020611ff287828801611d19565b935050604061200387828801611c64565b925050606085013567ffffffffffffffff81111561202457612023611ad1565b5b61203087828801611f8b565b91505092959194509250565b600067ffffffffffffffff82111561205757612056611e8e565b5b61206082611bd7565b9050602081019050919050565b600061208061207b8461203c565b611eee565b90508281526020810184848401111561209c5761209b611e89565b5b6120a7848285611f3a565b509392505050565b600082601f8301126120c4576120c3611e84565b5b81356120d484826020860161206d565b91505092915050565b600080600080600080600060e0888a0312156120fc576120fb611acc565b5b600061210a8a828b01611c64565b975050602061211b8a828b01611c64565b965050604088013567ffffffffffffffff81111561213c5761213b611ad1565b5b6121488a828b016120af565b955050606088013567ffffffffffffffff81111561216957612168611ad1565b5b6121758a828b016120af565b945050608088013567ffffffffffffffff81111561219657612195611ad1565b5b6121a28a828b016120af565b93505060a06121b38a828b01611c64565b92505060c06121c48a828b01611c64565b91505092959891949750929550565b600080604083850312156121ea576121e9611acc565b5b60006121f885828601611d19565b925050602061220985828601611d19565b9150509250929050565b600082825260208201905092915050565b600061222f82611b91565b6122398185612213565b9350612249818560208601611bad565b61225281611bd7565b840191505092915050565b61226681611c43565b82525050565b61227581611b5b565b82525050565b60006101008301600083015184820360008601526122998282612224565b915050602083015184820360208601526122b38282612224565b915050604083015184820360408601526122cd8282612224565b91505060608301516122e2606086018261225d565b5060808301516122f5608086018261225d565b5060a083015161230860a086018261225d565b5060c083015161231b60c086018261225d565b5060e083015161232e60e086018261226c565b508091505092915050565b60006020820190508181036000830152612353818461227b565b905092915050565b7f4e487b7100000000000000000000000000000000000000000000000000000000600052602260045260246000fd5b600060028204905060018216806123a257607f821691505b6020821081036123b5576123b461235b565b5b50919050565b7f4552433732313a20617070726f76616c20746f2063757272656e74206f776e6560008201527f7200000000000000000000000000000000000000000000000000000000000000602082015250565b6000612417602183611b9c565b9150612422826123bb565b604082019050919050565b600060208201905081810360008301526124468161240a565b9050919050565b7f4552433732313a20617070726f76652063616c6c6572206973206e6f7420746f60008201527f6b656e206f776e6572206f7220617070726f76656420666f7220616c6c000000602082015250565b60006124a9603d83611b9c565b91506124b48261244d565b604082019050919050565b600060208201905081810360008301526124d88161249c565b9050919050565b7f4552433732313a2063616c6c6572206973206e6f7420746f6b656e206f776e6560008201527f72206f7220617070726f76656400000000000000000000000000000000000000602082015250565b600061253b602d83611b9c565b9150612546826124df565b604082019050919050565b6000602082019050818103600083015261256a8161252e565b9050919050565b7f4552433732313a20696e76616c696420746f6b656e2049440000000000000000600082015250565b60006125a7601883611b9c565b91506125b282612571565b602082019050919050565b600060208201905081810360008301526125d68161259a565b9050919050565b7f4552433732313a2061646472657373207a65726f206973206e6f74206120766160008201527f6c6964206f776e65720000000000000000000000000000000000000000000000602082015250565b6000612639602983611b9c565b9150612644826125dd565b604082019050919050565b600060208201905081810360008301526126688161262c565b9050919050565b600081905092915050565b600061268582611b91565b61268f818561266f565b935061269f818560208601611bad565b80840191505092915050565b60006126b7828561267a565b91506126c3828461267a565b91508190509392505050565b60008190508160005260206000209050919050565b60006020601f8301049050919050565b600082821b905092915050565b6000600883026127317fffffffffffffffffffffffffffffffffffffffffffffffffffffffffffffffff826126f4565b61273b86836126f4565b95508019841693508086168417925050509392505050565b6000819050919050565b600061277861277361276e84611c43565b612753565b611c43565b9050919050565b6000819050919050565b6127928361275d565b6127a661279e8261277f565b848454612701565b825550505050565b600090565b6127bb6127ae565b6127c6818484612789565b505050565b5b818110156127ea576127df6000826127b3565b6001810190506127cc565b5050565b601f82111561282f57612800816126cf565b612809846126e4565b81016020851015612818578190505b61282c612824856126e4565b8301826127cb565b50505b505050565b600082821c905092915050565b600061285260001984600802612834565b1980831691505092915050565b600061286b8383612841565b9150826002028217905092915050565b61288482611b91565b67ffffffffffffffff81111561289d5761289c611e8e565b5b6128a7825461238a565b6128b28282856127ee565b600060209050601f8311600181146128e557600084156128d3578287015190505b6128dd858261285f565b865550612945565b601f1984166128f3866126cf565b60005b8281101561291b578489015182556001820191506020850194506020810190506128f6565b868310156129385784890151612934601f891682612841565b8355505b6001600288020188555050505b505050505050565b7f4e487b7100000000000000000000000000000000000000000000000000000000600052601160045260246000fd5b600061298782611c43565b915061299283611c43565b92508282019050808211156129aa576129a961294d565b5b92915050565b7f4552433732313a207472616e736665722066726f6d20696e636f72726563742060008201527f6f776e6572000000000000000000000000000000000000000000000000000000602082015250565b6000612a0c602583611b9c565b9150612a17826129b0565b604082019050919050565b60006020820190508181036000830152612a3b816129ff565b9050919050565b7f4552433732313a207472616e7366657220746f20746865207a65726f2061646460008201527f7265737300000000000000000000000000000000000000000000000000000000602082015250565b6000612a9e602483611b9c565b9150612aa982612a42565b604082019050919050565b60006020820190508181036000830152612acd81612a91565b9050919050565b7f4552433732313a20617070726f766520746f2063616c6c657200000000000000600082015250565b6000612b0a601983611b9c565b9150612b1582612ad4565b602082019050919050565b60006020820190508181036000830152612b3981612afd565b9050919050565b7f4552433732313a207472616e7366657220746f206e6f6e20455243373231526560008201527f63656976657220696d706c656d656e7465720000000000000000000000000000602082015250565b6000612b9c603283611b9c565b9150612ba782612b40565b604082019050919050565b60006020820190508181036000830152612bcb81612b8f565b9050919050565b7f4e487b7100000000000000000000000000000000000000000000000000000000600052601260045260246000fd5b7f4552433732313a206d696e7420746f20746865207a65726f2061646472657373600082015250565b6000612c37602083611b9c565b9150612c4282612c01565b602082019050919050565b60006020820190508181036000830152612c6681612c2a565b9050919050565b7f4552433732313a20746f6b656e20616c7265616479206d696e74656400000000600082015250565b6000612ca3601c83611b9c565b9150612cae82612c6d565b602082019050919050565b60006020820190508181036000830152612cd281612c96565b9050919050565b600081519050919050565b600082825260208201905092915050565b6000612d0082612cd9565b612d0a8185612ce4565b9350612d1a818560208601611bad565b612d2381611bd7565b840191505092915050565b6000608082019050612d436000830187611cd8565b612d506020830186611cd8565b612d5d6040830185611dee565b8181036060830152612d6f8184612cf5565b905095945050505050565b600081519050612d8981611b02565b92915050565b600060208284031215612da557612da4611acc565b5b6000612db384828501612d7a565b9150509291505056fea2646970667358221220d701950e172d6d70a8b0445d8bfac495800c443c440274ff62b2668413ab84b864736f6c63430008130033",
  "immutableReferences": {},
  "source": "// SPDX-License-Identifier: MIT\r\npragma solidity >=0.8.2 <0.9.0;\r\n\r\nimport \"@openzeppelin/contracts/token/ERC721/ERC721.sol\"; \r\n\r\ncontract LandRegistration is ERC721  {\r\n\r\n    constructor() ERC721(\"Land\", \"LND\") {}\r\n    \r\n    struct LandDetail {\r\n        string province;\r\n        string district;\r\n        string village;\r\n        uint blockNo;\r\n        uint surveyNo;\r\n        uint landValue; // in wei\r\n        uint area;\r\n        bool salesStatus;\r\n    }\r\n\r\n    mapping(uint => LandDetail) landDetails;\r\n\r\n    uint public registeredLandCount = 0;\r\n\r\n    bool salesStatus;\r\n\r\n    function registerNewLand(\r\n        uint surveyNo,\r\n        uint blockNo,\r\n        string memory province,\r\n        string memory district,\r\n        string memory village,\r\n        uint landValue,\r\n        uint area\r\n    ) public {\r\n        landDetails[registeredLandCount] = LandDetail(\r\n            province,\r\n            district,\r\n            village,\r\n            surveyNo,\r\n            blockNo,\r\n            landValue,\r\n            area,\r\n            false\r\n        );\r\n        _mint(msg.sender, registeredLandCount);\r\n        registeredLandCount += 1;\r\n    }\r\n\r\n    function getLandDetails(\r\n        uint landID\r\n    ) public view returns (LandDetail memory) {\r\n        return landDetails[landID];\r\n    }\r\n}\r\n",
  "sourcePath": "D:\\KBA\\land-marketplace-dapp\\contracts\\Land.sol",
  "compiler": {
    "name": "solc",
    "version": "0.8.19+commit.7dd6d404.Emscripten.clang"
  },
  "schemaVersion": "3.4.13",
  "updatedAt": "2023-05-15T01:53:34.814Z",
  "devdoc": {
    "events": {
      "Approval(address,address,uint256)": {
        "details": "Emitted when `owner` enables `approved` to manage the `tokenId` token."
      },
      "ApprovalForAll(address,address,bool)": {
        "details": "Emitted when `owner` enables or disables (`approved`) `operator` to manage all of its assets."
      },
      "Transfer(address,address,uint256)": {
        "details": "Emitted when `tokenId` token is transferred from `from` to `to`."
      }
    },
    "kind": "dev",
    "methods": {
      "approve(address,uint256)": {
        "details": "See {IERC721-approve}."
      },
      "balanceOf(address)": {
        "details": "See {IERC721-balanceOf}."
      },
      "getApproved(uint256)": {
        "details": "See {IERC721-getApproved}."
      },
      "isApprovedForAll(address,address)": {
        "details": "See {IERC721-isApprovedForAll}."
      },
      "name()": {
        "details": "See {IERC721Metadata-name}."
      },
      "ownerOf(uint256)": {
        "details": "See {IERC721-ownerOf}."
      },
      "safeTransferFrom(address,address,uint256)": {
        "details": "See {IERC721-safeTransferFrom}."
      },
      "safeTransferFrom(address,address,uint256,bytes)": {
        "details": "See {IERC721-safeTransferFrom}."
      },
      "setApprovalForAll(address,bool)": {
        "details": "See {IERC721-setApprovalForAll}."
      },
      "supportsInterface(bytes4)": {
        "details": "See {IERC165-supportsInterface}."
      },
      "symbol()": {
        "details": "See {IERC721Metadata-symbol}."
      },
      "tokenURI(uint256)": {
        "details": "See {IERC721Metadata-tokenURI}."
      },
      "transferFrom(address,address,uint256)": {
        "details": "See {IERC721-transferFrom}."
      }
    },
    "version": 1
  },
  "userdoc": {
    "kind": "user",
    "methods": {},
    "version": 1
  }
}