{
  "contractName": "LandSale",
  "abi": [
    {
      "stateMutability": "nonpayable",
      "type": "fallback"
    },
    {
      "inputs": [
        {
          "internalType": "uint256",
          "name": "landID",
          "type": "uint256"
        }
      ],
      "name": "getLandDetails",
      "outputs": [
        {
          "components": [
            {
              "internalType": "string",
              "name": "province",
              "type": "string"
            },
            {
              "internalType": "string",
              "name": "district",
              "type": "string"
            },
            {
              "internalType": "string",
              "name": "village",
              "type": "string"
            },
            {
              "internalType": "uint256",
              "name": "blockNo",
              "type": "uint256"
            },
            {
              "internalType": "uint256",
              "name": "surveyNo",
              "type": "uint256"
            },
            {
              "internalType": "uint256",
              "name": "landValue",
              "type": "uint256"
            },
            {
              "internalType": "uint256",
              "name": "area",
              "type": "uint256"
            },
            {
              "internalType": "bool",
              "name": "salesStatus",
              "type": "bool"
            }
          ],
          "internalType": "struct LandRegistration.LandDetail",
          "name": "",
          "type": "tuple"
        }
      ],
      "stateMutability": "view",
      "type": "function"
    },
    {
      "inputs": [
        {
          "internalType": "uint256",
          "name": "surveyNo",
          "type": "uint256"
        },
        {
          "internalType": "uint256",
          "name": "blockNo",
          "type": "uint256"
        },
        {
          "internalType": "string",
          "name": "province",
          "type": "string"
        },
        {
          "internalType": "string",
          "name": "district",
          "type": "string"
        },
        {
          "internalType": "string",
          "name": "village",
          "type": "string"
        },
        {
          "internalType": "uint256",
          "name": "landValue",
          "type": "uint256"
        },
        {
          "internalType": "uint256",
          "name": "area",
          "type": "uint256"
        }
      ],
      "name": "registerNewLand",
      "outputs": [],
      "stateMutability": "nonpayable",
      "type": "function"
    },
    {
      "inputs": [],
      "name": "registeredLandCount",
      "outputs": [
        {
          "internalType": "uint256",
          "name": "",
          "type": "uint256"
        }
      ],
      "stateMutability": "view",
      "type": "function"
    },
    {
      "inputs": [
        {
          "internalType": "uint256",
          "name": "landID",
          "type": "uint256"
        }
      ],
      "name": "bid",
      "outputs": [],
      "stateMutability": "payable",
      "type": "function"
    },
    {
      "inputs": [
        {
          "internalType": "uint256",
          "name": "landID",
          "type": "uint256"
        }
      ],
      "name": "acceptBid",
      "outputs": [],
      "stateMutability": "nonpayable",
      "type": "function"
    }
  ],
  "bytecode": "0x6080604052600060015534801561001557600080fd5b50610c8c806100256000396000f3fe60806040526004361061004e5760003560e01c80632b1fd58a14610060578063454a2ab314610089578063a7613a7d146100a5578063e6fdc4a1146100d0578063fe0cb7dc146100f95761004f565b5b34801561005b57600080fd5b600080fd5b34801561006c57600080fd5b50610087600480360381019061008291906104f9565b610136565b005b6100a3600480360381019061009e91906104f9565b610139565b005b3480156100b157600080fd5b506100ba61013c565b6040516100c79190610535565b60405180910390f35b3480156100dc57600080fd5b506100f760048036038101906100f29190610696565b610142565b005b34801561010557600080fd5b50610120600480360381019061011b91906104f9565b610242565b60405161012d91906108f3565b60405180910390f35b50565b50565b60015481565b60405180610100016040528086815260200185815260200184815260200188815260200187815260200183815260200182815260200160001515815250600080600154815260200190815260200160002060008201518160000190816101a89190610b21565b5060208201518160010190816101be9190610b21565b5060408201518160020190816101d49190610b21565b50606082015181600301556080820151816004015560a0820151816005015560c0820151816006015560e08201518160070160006101000a81548160ff02191690831515021790555090505060018060008282546102329190610c22565b9250508190555050505050505050565b61024a610468565b6000808381526020019081526020016000206040518061010001604052908160008201805461027890610944565b80601f01602080910402602001604051908101604052809291908181526020018280546102a490610944565b80156102f15780601f106102c6576101008083540402835291602001916102f1565b820191906000526020600020905b8154815290600101906020018083116102d457829003601f168201915b5050505050815260200160018201805461030a90610944565b80601f016020809104026020016040519081016040528092919081815260200182805461033690610944565b80156103835780601f1061035857610100808354040283529160200191610383565b820191906000526020600020905b81548152906001019060200180831161036657829003601f168201915b5050505050815260200160028201805461039c90610944565b80601f01602080910402602001604051908101604052809291908181526020018280546103c890610944565b80156104155780601f106103ea57610100808354040283529160200191610415565b820191906000526020600020905b8154815290600101906020018083116103f857829003601f168201915b50505050508152602001600382015481526020016004820154815260200160058201548152602001600682015481526020016007820160009054906101000a900460ff1615151515815250509050919050565b604051806101000160405280606081526020016060815260200160608152602001600081526020016000815260200160008152602001600081526020016000151581525090565b6000604051905090565b600080fd5b600080fd5b6000819050919050565b6104d6816104c3565b81146104e157600080fd5b50565b6000813590506104f3816104cd565b92915050565b60006020828403121561050f5761050e6104b9565b5b600061051d848285016104e4565b91505092915050565b61052f816104c3565b82525050565b600060208201905061054a6000830184610526565b92915050565b600080fd5b600080fd5b6000601f19601f8301169050919050565b7f4e487b7100000000000000000000000000000000000000000000000000000000600052604160045260246000fd5b6105a38261055a565b810181811067ffffffffffffffff821117156105c2576105c161056b565b5b80604052505050565b60006105d56104af565b90506105e1828261059a565b919050565b600067ffffffffffffffff8211156106015761060061056b565b5b61060a8261055a565b9050602081019050919050565b82818337600083830152505050565b6000610639610634846105e6565b6105cb565b90508281526020810184848401111561065557610654610555565b5b610660848285610617565b509392505050565b600082601f83011261067d5761067c610550565b5b813561068d848260208601610626565b91505092915050565b600080600080600080600060e0888a0312156106b5576106b46104b9565b5b60006106c38a828b016104e4565b97505060206106d48a828b016104e4565b965050604088013567ffffffffffffffff8111156106f5576106f46104be565b5b6107018a828b01610668565b955050606088013567ffffffffffffffff811115610722576107216104be565b5b61072e8a828b01610668565b945050608088013567ffffffffffffffff81111561074f5761074e6104be565b5b61075b8a828b01610668565b93505060a061076c8a828b016104e4565b92505060c061077d8a828b016104e4565b91505092959891949750929550565b600081519050919050565b600082825260208201905092915050565b60005b838110156107c65780820151818401526020810190506107ab565b60008484015250505050565b60006107dd8261078c565b6107e78185610797565b93506107f78185602086016107a8565b6108008161055a565b840191505092915050565b610814816104c3565b82525050565b60008115159050919050565b61082f8161081a565b82525050565b600061010083016000830151848203600086015261085382826107d2565b9150506020830151848203602086015261086d82826107d2565b9150506040830151848203604086015261088782826107d2565b915050606083015161089c606086018261080b565b5060808301516108af608086018261080b565b5060a08301516108c260a086018261080b565b5060c08301516108d560c086018261080b565b5060e08301516108e860e0860182610826565b508091505092915050565b6000602082019050818103600083015261090d8184610835565b905092915050565b7f4e487b7100000000000000000000000000000000000000000000000000000000600052602260045260246000fd5b6000600282049050600182168061095c57607f821691505b60208210810361096f5761096e610915565b5b50919050565b60008190508160005260206000209050919050565b60006020601f8301049050919050565b600082821b905092915050565b6000600883026109d77fffffffffffffffffffffffffffffffffffffffffffffffffffffffffffffffff8261099a565b6109e1868361099a565b95508019841693508086168417925050509392505050565b6000819050919050565b6000610a1e610a19610a14846104c3565b6109f9565b6104c3565b9050919050565b6000819050919050565b610a3883610a03565b610a4c610a4482610a25565b8484546109a7565b825550505050565b600090565b610a61610a54565b610a6c818484610a2f565b505050565b5b81811015610a9057610a85600082610a59565b600181019050610a72565b5050565b601f821115610ad557610aa681610975565b610aaf8461098a565b81016020851015610abe578190505b610ad2610aca8561098a565b830182610a71565b50505b505050565b600082821c905092915050565b6000610af860001984600802610ada565b1980831691505092915050565b6000610b118383610ae7565b9150826002028217905092915050565b610b2a8261078c565b67ffffffffffffffff811115610b4357610b4261056b565b5b610b4d8254610944565b610b58828285610a94565b600060209050601f831160018114610b8b5760008415610b79578287015190505b610b838582610b05565b865550610beb565b601f198416610b9986610975565b60005b82811015610bc157848901518255600182019150602085019450602081019050610b9c565b86831015610bde5784890151610bda601f891682610ae7565b8355505b6001600288020188555050505b505050505050565b7f4e487b7100000000000000000000000000000000000000000000000000000000600052601160045260246000fd5b6000610c2d826104c3565b9150610c38836104c3565b9250828201905080821115610c5057610c4f610bf3565b5b9291505056fea264697066735822122098c3259d6ecc71374e3f26051889514dea0d532e85b4290713124da7d0633a8064736f6c63430008130033",
  "immutableReferences": {},
  "source": "// SPDX-License-Identifier: MIT\r\npragma solidity >=0.8.2 <0.9.0;\r\n\r\nimport \"./Land.sol\";\r\n\r\ncontract LandSale is LandRegistration {\r\n\r\n    struct BidDetail {\r\n        uint256 highestBid;\r\n        address highestBidder;\r\n        mapping(address => uint256) bids;\r\n        address[] bidders;\r\n    }\r\n    mapping(uint256 => BidDetail) bidDetails;\r\n\r\n    function bid(uint256 landID) public payable {\r\n\r\n    }\r\n\r\n    function acceptBid(uint256 landID) public {\r\n\r\n    }\r\n\r\n    fallback() external {\r\n        revert();\r\n    }\r\n}",
  "sourcePath": "D:\\KBA\\land-marketplace-dapp\\contracts\\LandSale.sol",
  "compiler": {
    "name": "solc",
    "version": "0.8.19+commit.7dd6d404.Emscripten.clang"
  },
  "schemaVersion": "3.4.13",
  "updatedAt": "2023-05-10T12:42:41.188Z",
  "devdoc": {
    "kind": "dev",
    "methods": {},
    "version": 1
  },
  "userdoc": {
    "kind": "user",
    "methods": {},
    "version": 1
  }
}